{
	"contracts/StorageFactory.sol": {
		"StorageFactory": {
			"abi": [
				{
					"inputs": [],
					"name": "createSimpleContract",
					"outputs": [],
					"stateMutability": "nonpayable",
					"type": "function"
				},
				{
					"inputs": [
						{
							"internalType": "uint256",
							"name": "",
							"type": "uint256"
						}
					],
					"name": "newclassArray",
					"outputs": [
						{
							"internalType": "contract SimpleContract",
							"name": "",
							"type": "address"
						}
					],
					"stateMutability": "view",
					"type": "function"
				},
				{
					"inputs": [
						{
							"internalType": "uint256",
							"name": "_simpleStorageIndex",
							"type": "uint256"
						}
					],
					"name": "sfget",
					"outputs": [
						{
							"internalType": "uint256",
							"name": "",
							"type": "uint256"
						}
					],
					"stateMutability": "view",
					"type": "function"
				},
				{
					"inputs": [
						{
							"internalType": "uint256",
							"name": "_simplestorageindex",
							"type": "uint256"
						},
						{
							"internalType": "uint256",
							"name": "_simpleStorageNumber",
							"type": "uint256"
						}
					],
					"name": "sfstore",
					"outputs": [],
					"stateMutability": "nonpayable",
					"type": "function"
				}
			],
			"devdoc": {
				"kind": "dev",
				"methods": {},
				"version": 1
			},
			"evm": {
				"assembly": "    /* \"contracts/StorageFactory.sol\":102:788  contract StorageFactory{\r... */\n  mstore(0x40, 0x80)\n  callvalue\n  dup1\n  iszero\n  tag_1\n  jumpi\n  0x00\n  dup1\n  revert\ntag_1:\n  pop\n  dataSize(sub_0)\n  dup1\n  dataOffset(sub_0)\n  0x00\n  codecopy\n  0x00\n  return\nstop\n\nsub_0: assembly {\n        /* \"contracts/StorageFactory.sol\":102:788  contract StorageFactory{\r... */\n      mstore(0x40, 0x80)\n      callvalue\n      dup1\n      iszero\n      tag_1\n      jumpi\n      0x00\n      dup1\n      revert\n    tag_1:\n      pop\n      jumpi(tag_2, lt(calldatasize, 0x04))\n      shr(0xe0, calldataload(0x00))\n      dup1\n      0x0ad91b64\n      eq\n      tag_3\n      jumpi\n      dup1\n      0x0f7cfbaa\n      eq\n      tag_4\n      jumpi\n      dup1\n      0x6c7e373f\n      eq\n      tag_5\n      jumpi\n      dup1\n      0xcaec2a5a\n      eq\n      tag_6\n      jumpi\n    tag_2:\n      0x00\n      dup1\n      revert\n        /* \"contracts/StorageFactory.sol\":632:785  function sfget(uint256 _simpleStorageIndex) public view returns(uint256) {\r... */\n    tag_3:\n      tag_7\n      0x04\n      dup1\n      calldatasize\n      sub\n      dup2\n      add\n      swap1\n      tag_8\n      swap2\n      swap1\n      tag_9\n      jump\t// in\n    tag_8:\n      tag_10\n      jump\t// in\n    tag_7:\n      mload(0x40)\n      tag_11\n      swap2\n      swap1\n      tag_12\n      jump\t// in\n    tag_11:\n      mload(0x40)\n      dup1\n      swap2\n      sub\n      swap1\n      return\n        /* \"contracts/StorageFactory.sol\":176:314  function createSimpleContract() public{\r... */\n    tag_4:\n      tag_13\n      tag_14\n      jump\t// in\n    tag_13:\n      stop\n        /* \"contracts/StorageFactory.sol\":132:169  SimpleContract[] public newclassArray */\n    tag_5:\n      tag_15\n      0x04\n      dup1\n      calldatasize\n      sub\n      dup2\n      add\n      swap1\n      tag_16\n      swap2\n      swap1\n      tag_9\n      jump\t// in\n    tag_16:\n      tag_17\n      jump\t// in\n    tag_15:\n      mload(0x40)\n      tag_18\n      swap2\n      swap1\n      tag_19\n      jump\t// in\n    tag_18:\n      mload(0x40)\n      dup1\n      swap2\n      sub\n      swap1\n      return\n        /* \"contracts/StorageFactory.sol\":322:626  function sfstore (uint256 _simplestorageindex,uint256 _simpleStorageNumber) public{\r... */\n    tag_6:\n      tag_20\n      0x04\n      dup1\n      calldatasize\n      sub\n      dup2\n      add\n      swap1\n      tag_21\n      swap2\n      swap1\n      tag_22\n      jump\t// in\n    tag_21:\n      tag_23\n      jump\t// in\n    tag_20:\n      stop\n        /* \"contracts/StorageFactory.sol\":632:785  function sfget(uint256 _simpleStorageIndex) public view returns(uint256) {\r... */\n    tag_10:\n        /* \"contracts/StorageFactory.sol\":696:703  uint256 */\n      0x00\n        /* \"contracts/StorageFactory.sol\":722:735  newclassArray */\n      dup1\n        /* \"contracts/StorageFactory.sol\":736:755  _simpleStorageIndex */\n      dup3\n        /* \"contracts/StorageFactory.sol\":722:756  newclassArray[_simpleStorageIndex] */\n      dup2\n      sload\n      dup2\n      lt\n      tag_25\n      jumpi\n      tag_26\n      tag_27\n      jump\t// in\n    tag_26:\n    tag_25:\n      swap1\n      0x00\n      mstore\n      keccak256(0x00, 0x20)\n      add\n      0x00\n      swap1\n      sload\n      swap1\n      0x0100\n      exp\n      swap1\n      div\n      0xffffffffffffffffffffffffffffffffffffffff\n      and\n        /* \"contracts/StorageFactory.sol\":722:765  newclassArray[_simpleStorageIndex].retrieve */\n      0xffffffffffffffffffffffffffffffffffffffff\n      and\n      0x2e64cec1\n        /* \"contracts/StorageFactory.sol\":722:767  newclassArray[_simpleStorageIndex].retrieve() */\n      mload(0x40)\n      dup2\n      0xffffffff\n      and\n      0xe0\n      shl\n      dup2\n      mstore\n      0x04\n      add\n      0x20\n      mload(0x40)\n      dup1\n      dup4\n      sub\n      dup2\n      dup7\n      dup1\n      extcodesize\n      iszero\n      dup1\n      iszero\n      tag_29\n      jumpi\n      0x00\n      dup1\n      revert\n    tag_29:\n      pop\n      gas\n      staticcall\n      iszero\n      dup1\n      iszero\n      tag_31\n      jumpi\n      returndatasize\n      0x00\n      dup1\n      returndatacopy\n      revert(0x00, returndatasize)\n    tag_31:\n      pop\n      pop\n      pop\n      pop\n      mload(0x40)\n      returndatasize\n      not(0x1f)\n      0x1f\n      dup3\n      add\n      and\n      dup3\n      add\n      dup1\n      0x40\n      mstore\n      pop\n      dup2\n      add\n      swap1\n      tag_32\n      swap2\n      swap1\n      tag_33\n      jump\t// in\n    tag_32:\n        /* \"contracts/StorageFactory.sol\":714:767  return  newclassArray[_simpleStorageIndex].retrieve() */\n      swap1\n      pop\n        /* \"contracts/StorageFactory.sol\":632:785  function sfget(uint256 _simpleStorageIndex) public view returns(uint256) {\r... */\n      swap2\n      swap1\n      pop\n      jump\t// out\n        /* \"contracts/StorageFactory.sol\":176:314  function createSimpleContract() public{\r... */\n    tag_14:\n        /* \"contracts/StorageFactory.sol\":224:247  SimpleContract  simstor */\n      0x00\n        /* \"contracts/StorageFactory.sol\":248:268  new SimpleContract() */\n      mload(0x40)\n      tag_35\n      swap1\n      tag_36\n      jump\t// in\n    tag_35:\n      mload(0x40)\n      dup1\n      swap2\n      sub\n      swap1\n      0x00\n      create\n      dup1\n      iszero\n      dup1\n      iszero\n      tag_37\n      jumpi\n      returndatasize\n      0x00\n      dup1\n      returndatacopy\n      revert(0x00, returndatasize)\n    tag_37:\n      pop\n        /* \"contracts/StorageFactory.sol\":224:268  SimpleContract  simstor=new SimpleContract() */\n      swap1\n      pop\n        /* \"contracts/StorageFactory.sol\":279:292  newclassArray */\n      0x00\n        /* \"contracts/StorageFactory.sol\":298:305  simstor */\n      dup2\n        /* \"contracts/StorageFactory.sol\":279:306  newclassArray.push(simstor) */\n      swap1\n      dup1\n      0x01\n      dup2\n      sload\n      add\n      dup1\n      dup3\n      sstore\n      dup1\n      swap2\n      pop\n      pop\n      0x01\n      swap1\n      sub\n      swap1\n      0x00\n      mstore\n      keccak256(0x00, 0x20)\n      add\n      0x00\n      swap1\n      swap2\n      swap1\n      swap2\n      swap1\n      swap2\n      0x0100\n      exp\n      dup2\n      sload\n      dup2\n      0xffffffffffffffffffffffffffffffffffffffff\n      mul\n      not\n      and\n      swap1\n      dup4\n      0xffffffffffffffffffffffffffffffffffffffff\n      and\n      mul\n      or\n      swap1\n      sstore\n      pop\n        /* \"contracts/StorageFactory.sol\":214:314  {\r... */\n      pop\n        /* \"contracts/StorageFactory.sol\":176:314  function createSimpleContract() public{\r... */\n      jump\t// out\n        /* \"contracts/StorageFactory.sol\":132:169  SimpleContract[] public newclassArray */\n    tag_17:\n      0x00\n      dup2\n      dup2\n      sload\n      dup2\n      lt\n      tag_39\n      jumpi\n      0x00\n      dup1\n      revert\n    tag_39:\n      swap1\n      0x00\n      mstore\n      keccak256(0x00, 0x20)\n      add\n      0x00\n      swap2\n      pop\n      sload\n      swap1\n      0x0100\n      exp\n      swap1\n      div\n      0xffffffffffffffffffffffffffffffffffffffff\n      and\n      dup2\n      jump\t// out\n        /* \"contracts/StorageFactory.sol\":322:626  function sfstore (uint256 _simplestorageindex,uint256 _simpleStorageNumber) public{\r... */\n    tag_23:\n        /* \"contracts/StorageFactory.sol\":552:565  newclassArray */\n      0x00\n        /* \"contracts/StorageFactory.sol\":566:585  _simplestorageindex */\n      dup3\n        /* \"contracts/StorageFactory.sol\":552:586  newclassArray[_simplestorageindex] */\n      dup2\n      sload\n      dup2\n      lt\n      tag_42\n      jumpi\n      tag_43\n      tag_27\n      jump\t// in\n    tag_43:\n    tag_42:\n      swap1\n      0x00\n      mstore\n      keccak256(0x00, 0x20)\n      add\n      0x00\n      swap1\n      sload\n      swap1\n      0x0100\n      exp\n      swap1\n      div\n      0xffffffffffffffffffffffffffffffffffffffff\n      and\n        /* \"contracts/StorageFactory.sol\":552:592  newclassArray[_simplestorageindex].store */\n      0xffffffffffffffffffffffffffffffffffffffff\n      and\n      0x6057361d\n        /* \"contracts/StorageFactory.sol\":593:613  _simpleStorageNumber */\n      dup3\n        /* \"contracts/StorageFactory.sol\":552:614  newclassArray[_simplestorageindex].store(_simpleStorageNumber) */\n      mload(0x40)\n      dup3\n      0xffffffff\n      and\n      0xe0\n      shl\n      dup2\n      mstore\n      0x04\n      add\n      tag_45\n      swap2\n      swap1\n      tag_12\n      jump\t// in\n    tag_45:\n      0x00\n      mload(0x40)\n      dup1\n      dup4\n      sub\n      dup2\n      0x00\n      dup8\n      dup1\n      extcodesize\n      iszero\n      dup1\n      iszero\n      tag_46\n      jumpi\n      0x00\n      dup1\n      revert\n    tag_46:\n      pop\n      gas\n      call\n      iszero\n      dup1\n      iszero\n      tag_48\n      jumpi\n      returndatasize\n      0x00\n      dup1\n      returndatacopy\n      revert(0x00, returndatasize)\n    tag_48:\n      pop\n      pop\n      pop\n      pop\n        /* \"contracts/StorageFactory.sol\":322:626  function sfstore (uint256 _simplestorageindex,uint256 _simpleStorageNumber) public{\r... */\n      pop\n      pop\n      jump\t// out\n    tag_36:\n      dataSize(sub_0)\n      dup1\n      dataOffset(sub_0)\n      dup4\n      codecopy\n      add\n      swap1\n      jump\t// out\n        /* \"#utility.yul\":7:146   */\n    tag_50:\n        /* \"#utility.yul\":53:58   */\n      0x00\n        /* \"#utility.yul\":91:97   */\n      dup2\n        /* \"#utility.yul\":78:98   */\n      calldataload\n        /* \"#utility.yul\":69:98   */\n      swap1\n      pop\n        /* \"#utility.yul\":107:140   */\n      tag_52\n        /* \"#utility.yul\":134:139   */\n      dup2\n        /* \"#utility.yul\":107:140   */\n      tag_53\n      jump\t// in\n    tag_52:\n        /* \"#utility.yul\":7:146   */\n      swap3\n      swap2\n      pop\n      pop\n      jump\t// out\n        /* \"#utility.yul\":152:295   */\n    tag_54:\n        /* \"#utility.yul\":209:214   */\n      0x00\n        /* \"#utility.yul\":240:246   */\n      dup2\n        /* \"#utility.yul\":234:247   */\n      mload\n        /* \"#utility.yul\":225:247   */\n      swap1\n      pop\n        /* \"#utility.yul\":256:289   */\n      tag_56\n        /* \"#utility.yul\":283:288   */\n      dup2\n        /* \"#utility.yul\":256:289   */\n      tag_53\n      jump\t// in\n    tag_56:\n        /* \"#utility.yul\":152:295   */\n      swap3\n      swap2\n      pop\n      pop\n      jump\t// out\n        /* \"#utility.yul\":301:630   */\n    tag_9:\n        /* \"#utility.yul\":360:366   */\n      0x00\n        /* \"#utility.yul\":409:411   */\n      0x20\n        /* \"#utility.yul\":397:406   */\n      dup3\n        /* \"#utility.yul\":388:395   */\n      dup5\n        /* \"#utility.yul\":384:407   */\n      sub\n        /* \"#utility.yul\":380:412   */\n      slt\n        /* \"#utility.yul\":377:496   */\n      iszero\n      tag_58\n      jumpi\n        /* \"#utility.yul\":415:494   */\n      tag_59\n      tag_60\n      jump\t// in\n    tag_59:\n        /* \"#utility.yul\":377:496   */\n    tag_58:\n        /* \"#utility.yul\":535:536   */\n      0x00\n        /* \"#utility.yul\":560:613   */\n      tag_61\n        /* \"#utility.yul\":605:612   */\n      dup5\n        /* \"#utility.yul\":596:602   */\n      dup3\n        /* \"#utility.yul\":585:594   */\n      dup6\n        /* \"#utility.yul\":581:603   */\n      add\n        /* \"#utility.yul\":560:613   */\n      tag_50\n      jump\t// in\n    tag_61:\n        /* \"#utility.yul\":550:613   */\n      swap2\n      pop\n        /* \"#utility.yul\":506:623   */\n      pop\n        /* \"#utility.yul\":301:630   */\n      swap3\n      swap2\n      pop\n      pop\n      jump\t// out\n        /* \"#utility.yul\":636:987   */\n    tag_33:\n        /* \"#utility.yul\":706:712   */\n      0x00\n        /* \"#utility.yul\":755:757   */\n      0x20\n        /* \"#utility.yul\":743:752   */\n      dup3\n        /* \"#utility.yul\":734:741   */\n      dup5\n        /* \"#utility.yul\":730:753   */\n      sub\n        /* \"#utility.yul\":726:758   */\n      slt\n        /* \"#utility.yul\":723:842   */\n      iszero\n      tag_63\n      jumpi\n        /* \"#utility.yul\":761:840   */\n      tag_64\n      tag_60\n      jump\t// in\n    tag_64:\n        /* \"#utility.yul\":723:842   */\n    tag_63:\n        /* \"#utility.yul\":881:882   */\n      0x00\n        /* \"#utility.yul\":906:970   */\n      tag_65\n        /* \"#utility.yul\":962:969   */\n      dup5\n        /* \"#utility.yul\":953:959   */\n      dup3\n        /* \"#utility.yul\":942:951   */\n      dup6\n        /* \"#utility.yul\":938:960   */\n      add\n        /* \"#utility.yul\":906:970   */\n      tag_54\n      jump\t// in\n    tag_65:\n        /* \"#utility.yul\":896:970   */\n      swap2\n      pop\n        /* \"#utility.yul\":852:980   */\n      pop\n        /* \"#utility.yul\":636:987   */\n      swap3\n      swap2\n      pop\n      pop\n      jump\t// out\n        /* \"#utility.yul\":993:1467   */\n    tag_22:\n        /* \"#utility.yul\":1061:1067   */\n      0x00\n        /* \"#utility.yul\":1069:1075   */\n      dup1\n        /* \"#utility.yul\":1118:1120   */\n      0x40\n        /* \"#utility.yul\":1106:1115   */\n      dup4\n        /* \"#utility.yul\":1097:1104   */\n      dup6\n        /* \"#utility.yul\":1093:1116   */\n      sub\n        /* \"#utility.yul\":1089:1121   */\n      slt\n        /* \"#utility.yul\":1086:1205   */\n      iszero\n      tag_67\n      jumpi\n        /* \"#utility.yul\":1124:1203   */\n      tag_68\n      tag_60\n      jump\t// in\n    tag_68:\n        /* \"#utility.yul\":1086:1205   */\n    tag_67:\n        /* \"#utility.yul\":1244:1245   */\n      0x00\n        /* \"#utility.yul\":1269:1322   */\n      tag_69\n        /* \"#utility.yul\":1314:1321   */\n      dup6\n        /* \"#utility.yul\":1305:1311   */\n      dup3\n        /* \"#utility.yul\":1294:1303   */\n      dup7\n        /* \"#utility.yul\":1290:1312   */\n      add\n        /* \"#utility.yul\":1269:1322   */\n      tag_50\n      jump\t// in\n    tag_69:\n        /* \"#utility.yul\":1259:1322   */\n      swap3\n      pop\n        /* \"#utility.yul\":1215:1332   */\n      pop\n        /* \"#utility.yul\":1371:1373   */\n      0x20\n        /* \"#utility.yul\":1397:1450   */\n      tag_70\n        /* \"#utility.yul\":1442:1449   */\n      dup6\n        /* \"#utility.yul\":1433:1439   */\n      dup3\n        /* \"#utility.yul\":1422:1431   */\n      dup7\n        /* \"#utility.yul\":1418:1440   */\n      add\n        /* \"#utility.yul\":1397:1450   */\n      tag_50\n      jump\t// in\n    tag_70:\n        /* \"#utility.yul\":1387:1450   */\n      swap2\n      pop\n        /* \"#utility.yul\":1342:1460   */\n      pop\n        /* \"#utility.yul\":993:1467   */\n      swap3\n      pop\n      swap3\n      swap1\n      pop\n      jump\t// out\n        /* \"#utility.yul\":1473:1648   */\n    tag_71:\n        /* \"#utility.yul\":1582:1641   */\n      tag_73\n        /* \"#utility.yul\":1635:1640   */\n      dup2\n        /* \"#utility.yul\":1582:1641   */\n      tag_74\n      jump\t// in\n    tag_73:\n        /* \"#utility.yul\":1577:1580   */\n      dup3\n        /* \"#utility.yul\":1570:1642   */\n      mstore\n        /* \"#utility.yul\":1473:1648   */\n      pop\n      pop\n      jump\t// out\n        /* \"#utility.yul\":1654:1772   */\n    tag_75:\n        /* \"#utility.yul\":1741:1765   */\n      tag_77\n        /* \"#utility.yul\":1759:1764   */\n      dup2\n        /* \"#utility.yul\":1741:1765   */\n      tag_78\n      jump\t// in\n    tag_77:\n        /* \"#utility.yul\":1736:1739   */\n      dup3\n        /* \"#utility.yul\":1729:1766   */\n      mstore\n        /* \"#utility.yul\":1654:1772   */\n      pop\n      pop\n      jump\t// out\n        /* \"#utility.yul\":1778:2044   */\n    tag_19:\n        /* \"#utility.yul\":1893:1897   */\n      0x00\n        /* \"#utility.yul\":1931:1933   */\n      0x20\n        /* \"#utility.yul\":1920:1929   */\n      dup3\n        /* \"#utility.yul\":1916:1934   */\n      add\n        /* \"#utility.yul\":1908:1934   */\n      swap1\n      pop\n        /* \"#utility.yul\":1944:2037   */\n      tag_80\n        /* \"#utility.yul\":2034:2035   */\n      0x00\n        /* \"#utility.yul\":2023:2032   */\n      dup4\n        /* \"#utility.yul\":2019:2036   */\n      add\n        /* \"#utility.yul\":2010:2016   */\n      dup5\n        /* \"#utility.yul\":1944:2037   */\n      tag_71\n      jump\t// in\n    tag_80:\n        /* \"#utility.yul\":1778:2044   */\n      swap3\n      swap2\n      pop\n      pop\n      jump\t// out\n        /* \"#utility.yul\":2050:2272   */\n    tag_12:\n        /* \"#utility.yul\":2143:2147   */\n      0x00\n        /* \"#utility.yul\":2181:2183   */\n      0x20\n        /* \"#utility.yul\":2170:2179   */\n      dup3\n        /* \"#utility.yul\":2166:2184   */\n      add\n        /* \"#utility.yul\":2158:2184   */\n      swap1\n      pop\n        /* \"#utility.yul\":2194:2265   */\n      tag_82\n        /* \"#utility.yul\":2262:2263   */\n      0x00\n        /* \"#utility.yul\":2251:2260   */\n      dup4\n        /* \"#utility.yul\":2247:2264   */\n      add\n        /* \"#utility.yul\":2238:2244   */\n      dup5\n        /* \"#utility.yul\":2194:2265   */\n      tag_75\n      jump\t// in\n    tag_82:\n        /* \"#utility.yul\":2050:2272   */\n      swap3\n      swap2\n      pop\n      pop\n      jump\t// out\n        /* \"#utility.yul\":2359:2485   */\n    tag_85:\n        /* \"#utility.yul\":2396:2403   */\n      0x00\n        /* \"#utility.yul\":2436:2478   */\n      0xffffffffffffffffffffffffffffffffffffffff\n        /* \"#utility.yul\":2429:2434   */\n      dup3\n        /* \"#utility.yul\":2425:2479   */\n      and\n        /* \"#utility.yul\":2414:2479   */\n      swap1\n      pop\n        /* \"#utility.yul\":2359:2485   */\n      swap2\n      swap1\n      pop\n      jump\t// out\n        /* \"#utility.yul\":2491:2568   */\n    tag_78:\n        /* \"#utility.yul\":2528:2535   */\n      0x00\n        /* \"#utility.yul\":2557:2562   */\n      dup2\n        /* \"#utility.yul\":2546:2562   */\n      swap1\n      pop\n        /* \"#utility.yul\":2491:2568   */\n      swap2\n      swap1\n      pop\n      jump\t// out\n        /* \"#utility.yul\":2574:2722   */\n    tag_74:\n        /* \"#utility.yul\":2646:2655   */\n      0x00\n        /* \"#utility.yul\":2679:2716   */\n      tag_89\n        /* \"#utility.yul\":2710:2715   */\n      dup3\n        /* \"#utility.yul\":2679:2716   */\n      tag_90\n      jump\t// in\n    tag_89:\n        /* \"#utility.yul\":2666:2716   */\n      swap1\n      pop\n        /* \"#utility.yul\":2574:2722   */\n      swap2\n      swap1\n      pop\n      jump\t// out\n        /* \"#utility.yul\":2728:2854   */\n    tag_90:\n        /* \"#utility.yul\":2778:2787   */\n      0x00\n        /* \"#utility.yul\":2811:2848   */\n      tag_92\n        /* \"#utility.yul\":2842:2847   */\n      dup3\n        /* \"#utility.yul\":2811:2848   */\n      tag_93\n      jump\t// in\n    tag_92:\n        /* \"#utility.yul\":2798:2848   */\n      swap1\n      pop\n        /* \"#utility.yul\":2728:2854   */\n      swap2\n      swap1\n      pop\n      jump\t// out\n        /* \"#utility.yul\":2860:2973   */\n    tag_93:\n        /* \"#utility.yul\":2910:2919   */\n      0x00\n        /* \"#utility.yul\":2943:2967   */\n      tag_95\n        /* \"#utility.yul\":2961:2966   */\n      dup3\n        /* \"#utility.yul\":2943:2967   */\n      tag_85\n      jump\t// in\n    tag_95:\n        /* \"#utility.yul\":2930:2967   */\n      swap1\n      pop\n        /* \"#utility.yul\":2860:2973   */\n      swap2\n      swap1\n      pop\n      jump\t// out\n        /* \"#utility.yul\":2979:3159   */\n    tag_27:\n        /* \"#utility.yul\":3027:3104   */\n      0x4e487b7100000000000000000000000000000000000000000000000000000000\n        /* \"#utility.yul\":3024:3025   */\n      0x00\n        /* \"#utility.yul\":3017:3105   */\n      mstore\n        /* \"#utility.yul\":3124:3128   */\n      0x32\n        /* \"#utility.yul\":3121:3122   */\n      0x04\n        /* \"#utility.yul\":3114:3129   */\n      mstore\n        /* \"#utility.yul\":3148:3152   */\n      0x24\n        /* \"#utility.yul\":3145:3146   */\n      0x00\n        /* \"#utility.yul\":3138:3153   */\n      revert\n        /* \"#utility.yul\":3288:3405   */\n    tag_60:\n        /* \"#utility.yul\":3397:3398   */\n      0x00\n        /* \"#utility.yul\":3394:3395   */\n      dup1\n        /* \"#utility.yul\":3387:3399   */\n      revert\n        /* \"#utility.yul\":3411:3533   */\n    tag_53:\n        /* \"#utility.yul\":3484:3508   */\n      tag_101\n        /* \"#utility.yul\":3502:3507   */\n      dup2\n        /* \"#utility.yul\":3484:3508   */\n      tag_78\n      jump\t// in\n    tag_101:\n        /* \"#utility.yul\":3477:3482   */\n      dup2\n        /* \"#utility.yul\":3474:3509   */\n      eq\n        /* \"#utility.yul\":3464:3527   */\n      tag_102\n      jumpi\n        /* \"#utility.yul\":3523:3524   */\n      0x00\n        /* \"#utility.yul\":3520:3521   */\n      dup1\n        /* \"#utility.yul\":3513:3525   */\n      revert\n        /* \"#utility.yul\":3464:3527   */\n    tag_102:\n        /* \"#utility.yul\":3411:3533   */\n      pop\n      jump\t// out\n    stop\n\n    sub_0: assembly {\n            /* \"contracts/simpleStorage.sol\":67:850  contract SimpleContract{\r... */\n          mstore(0x40, 0x80)\n            /* \"contracts/simpleStorage.sol\":353:403  People({\r... */\n          mload(0x40)\n          dup1\n          0x40\n          add\n          0x40\n          mstore\n          dup1\n            /* \"contracts/simpleStorage.sol\":381:382  2 */\n          0x02\n            /* \"contracts/simpleStorage.sol\":353:403  People({\r... */\n          dup2\n          mstore\n          0x20\n          add\n          mload(0x40)\n          dup1\n          0x40\n          add\n          0x40\n          mstore\n          dup1\n          0x05\n          dup2\n          mstore\n          0x20\n          add\n          0x616b617368000000000000000000000000000000000000000000000000000000\n          dup2\n          mstore\n          pop\n          dup2\n          mstore\n          pop\n            /* \"contracts/simpleStorage.sol\":332:403  People public person=People({\r... */\n          0x02\n          0x00\n          dup3\n          add\n          mload\n          dup2\n          0x00\n          add\n          sstore\n          0x20\n          dup3\n          add\n          mload\n          dup2\n          0x01\n          add\n          swap1\n          dup1\n          mload\n          swap1\n          0x20\n          add\n          swap1\n          tag_1\n          swap3\n          swap2\n          swap1\n          tag_2\n          jump\t// in\n        tag_1:\n          pop\n          pop\n          pop\n            /* \"contracts/simpleStorage.sol\":67:850  contract SimpleContract{\r... */\n          callvalue\n          dup1\n          iszero\n          tag_3\n          jumpi\n          0x00\n          dup1\n          revert\n        tag_3:\n          pop\n          jump(tag_4)\n        tag_2:\n          dup3\n          dup1\n          sload\n          tag_5\n          swap1\n          tag_6\n          jump\t// in\n        tag_5:\n          swap1\n          0x00\n          mstore\n          keccak256(0x00, 0x20)\n          swap1\n          0x1f\n          add\n          0x20\n          swap1\n          div\n          dup2\n          add\n          swap3\n          dup3\n          tag_8\n          jumpi\n          0x00\n          dup6\n          sstore\n          jump(tag_7)\n        tag_8:\n          dup3\n          0x1f\n          lt\n          tag_9\n          jumpi\n          dup1\n          mload\n          not(0xff)\n          and\n          dup4\n          dup1\n          add\n          or\n          dup6\n          sstore\n          jump(tag_7)\n        tag_9:\n          dup3\n          dup1\n          add\n          0x01\n          add\n          dup6\n          sstore\n          dup3\n          iszero\n          tag_7\n          jumpi\n          swap2\n          dup3\n          add\n        tag_10:\n          dup3\n          dup2\n          gt\n          iszero\n          tag_11\n          jumpi\n          dup3\n          mload\n          dup3\n          sstore\n          swap2\n          0x20\n          add\n          swap2\n          swap1\n          0x01\n          add\n          swap1\n          jump(tag_10)\n        tag_11:\n        tag_7:\n          pop\n          swap1\n          pop\n          tag_12\n          swap2\n          swap1\n          tag_13\n          jump\t// in\n        tag_12:\n          pop\n          swap1\n          jump\t// out\n        tag_13:\n        tag_14:\n          dup1\n          dup3\n          gt\n          iszero\n          tag_15\n          jumpi\n          0x00\n          dup2\n          0x00\n          swap1\n          sstore\n          pop\n          0x01\n          add\n          jump(tag_14)\n        tag_15:\n          pop\n          swap1\n          jump\t// out\n            /* \"#utility.yul\":7:327   */\n        tag_6:\n            /* \"#utility.yul\":51:57   */\n          0x00\n            /* \"#utility.yul\":88:89   */\n          0x02\n            /* \"#utility.yul\":82:86   */\n          dup3\n            /* \"#utility.yul\":78:90   */\n          div\n            /* \"#utility.yul\":68:90   */\n          swap1\n          pop\n            /* \"#utility.yul\":135:136   */\n          0x01\n            /* \"#utility.yul\":129:133   */\n          dup3\n            /* \"#utility.yul\":125:137   */\n          and\n            /* \"#utility.yul\":156:174   */\n          dup1\n            /* \"#utility.yul\":146:227   */\n          tag_18\n          jumpi\n            /* \"#utility.yul\":212:216   */\n          0x7f\n            /* \"#utility.yul\":204:210   */\n          dup3\n            /* \"#utility.yul\":200:217   */\n          and\n            /* \"#utility.yul\":190:217   */\n          swap2\n          pop\n            /* \"#utility.yul\":146:227   */\n        tag_18:\n            /* \"#utility.yul\":274:276   */\n          0x20\n            /* \"#utility.yul\":266:272   */\n          dup3\n            /* \"#utility.yul\":263:277   */\n          lt\n            /* \"#utility.yul\":243:261   */\n          dup2\n            /* \"#utility.yul\":240:278   */\n          eq\n            /* \"#utility.yul\":237:321   */\n          iszero\n          tag_19\n          jumpi\n            /* \"#utility.yul\":293:311   */\n          tag_20\n          tag_21\n          jump\t// in\n        tag_20:\n            /* \"#utility.yul\":237:321   */\n        tag_19:\n            /* \"#utility.yul\":58:327   */\n          pop\n            /* \"#utility.yul\":7:327   */\n          swap2\n          swap1\n          pop\n          jump\t// out\n            /* \"#utility.yul\":333:513   */\n        tag_21:\n            /* \"#utility.yul\":381:458   */\n          0x4e487b7100000000000000000000000000000000000000000000000000000000\n            /* \"#utility.yul\":378:379   */\n          0x00\n            /* \"#utility.yul\":371:459   */\n          mstore\n            /* \"#utility.yul\":478:482   */\n          0x22\n            /* \"#utility.yul\":475:476   */\n          0x04\n            /* \"#utility.yul\":468:483   */\n          mstore\n            /* \"#utility.yul\":502:506   */\n          0x24\n            /* \"#utility.yul\":499:500   */\n          0x00\n            /* \"#utility.yul\":492:507   */\n          revert\n            /* \"contracts/simpleStorage.sol\":67:850  contract SimpleContract{\r... */\n        tag_4:\n          dataSize(sub_0)\n          dup1\n          dataOffset(sub_0)\n          0x00\n          codecopy\n          0x00\n          return\n        stop\n\n        sub_0: assembly {\n                /* \"contracts/simpleStorage.sol\":67:850  contract SimpleContract{\r... */\n              mstore(0x40, 0x80)\n              callvalue\n              dup1\n              iszero\n              tag_1\n              jumpi\n              0x00\n              dup1\n              revert\n            tag_1:\n              pop\n              jumpi(tag_2, lt(calldatasize, 0x04))\n              shr(0xe0, calldataload(0x00))\n              dup1\n              0x7fffb7bd\n              gt\n              tag_10\n              jumpi\n              dup1\n              0x7fffb7bd\n              eq\n              tag_6\n              jumpi\n              dup1\n              0x9e7a13ad\n              eq\n              tag_7\n              jumpi\n              dup1\n              0xe1b3202a\n              eq\n              tag_8\n              jumpi\n              dup1\n              0xe3cbb98e\n              eq\n              tag_9\n              jumpi\n              jump(tag_2)\n            tag_10:\n              dup1\n              0x2e64cec1\n              eq\n              tag_3\n              jumpi\n              dup1\n              0x6057361d\n              eq\n              tag_4\n              jumpi\n              dup1\n              0x77ec2b55\n              eq\n              tag_5\n              jumpi\n            tag_2:\n              0x00\n              dup1\n              revert\n                /* \"contracts/simpleStorage.sol\":570:654  function retrieve() public view returns(uint256){\r... */\n            tag_3:\n              tag_11\n              tag_12\n              jump\t// in\n            tag_11:\n              mload(0x40)\n              tag_13\n              swap2\n              swap1\n              tag_14\n              jump\t// in\n            tag_13:\n              mload(0x40)\n              dup1\n              swap2\n              sub\n              swap1\n              return\n                /* \"contracts/simpleStorage.sol\":186:326  function store(uint256 _favnumber)public{\r... */\n            tag_4:\n              tag_15\n              0x04\n              dup1\n              calldatasize\n              sub\n              dup2\n              add\n              swap1\n              tag_16\n              swap2\n              swap1\n              tag_17\n              jump\t// in\n            tag_16:\n              tag_18\n              jump\t// in\n            tag_15:\n              stop\n                /* \"contracts/simpleStorage.sol\":332:403  People public person=People({\r... */\n            tag_5:\n              tag_19\n              tag_20\n              jump\t// in\n            tag_19:\n              mload(0x40)\n              tag_21\n              swap3\n              swap2\n              swap1\n              tag_22\n              jump\t// in\n            tag_21:\n              mload(0x40)\n              dup1\n              swap2\n              sub\n              swap1\n              return\n                /* \"contracts/simpleStorage.sol\":97:122  uint256 public HelloWorld */\n            tag_6:\n              tag_23\n              tag_24\n              jump\t// in\n            tag_23:\n              mload(0x40)\n              tag_25\n              swap2\n              swap1\n              tag_14\n              jump\t// in\n            tag_25:\n              mload(0x40)\n              dup1\n              swap2\n              sub\n              swap1\n              return\n                /* \"contracts/simpleStorage.sol\":539:561  People[] public people */\n            tag_7:\n              tag_26\n              0x04\n              dup1\n              calldatasize\n              sub\n              dup2\n              add\n              swap1\n              tag_27\n              swap2\n              swap1\n              tag_17\n              jump\t// in\n            tag_27:\n              tag_28\n              jump\t// in\n            tag_26:\n              mload(0x40)\n              tag_29\n              swap3\n              swap2\n              swap1\n              tag_22\n              jump\t// in\n            tag_29:\n              mload(0x40)\n              dup1\n              swap2\n              sub\n              swap1\n              return\n                /* \"contracts/simpleStorage.sol\":663:847  function addperson (string memory _name,uint256 _favnumber)public{\r... */\n            tag_8:\n              tag_30\n              0x04\n              dup1\n              calldatasize\n              sub\n              dup2\n              add\n              swap1\n              tag_31\n              swap2\n              swap1\n              tag_32\n              jump\t// in\n            tag_31:\n              tag_33\n              jump\t// in\n            tag_30:\n              stop\n                /* \"contracts/simpleStorage.sol\":129:177  mapping(string =>uint256) public nametofavnumber */\n            tag_9:\n              tag_34\n              0x04\n              dup1\n              calldatasize\n              sub\n              dup2\n              add\n              swap1\n              tag_35\n              swap2\n              swap1\n              tag_36\n              jump\t// in\n            tag_35:\n              tag_37\n              jump\t// in\n            tag_34:\n              mload(0x40)\n              tag_38\n              swap2\n              swap1\n              tag_14\n              jump\t// in\n            tag_38:\n              mload(0x40)\n              dup1\n              swap2\n              sub\n              swap1\n              return\n                /* \"contracts/simpleStorage.sol\":570:654  function retrieve() public view returns(uint256){\r... */\n            tag_12:\n                /* \"contracts/simpleStorage.sol\":610:617  uint256 */\n              0x00\n                /* \"contracts/simpleStorage.sol\":636:646  HelloWorld */\n              dup1\n              sload\n                /* \"contracts/simpleStorage.sol\":629:646  return HelloWorld */\n              swap1\n              pop\n                /* \"contracts/simpleStorage.sol\":570:654  function retrieve() public view returns(uint256){\r... */\n              swap1\n              jump\t// out\n                /* \"contracts/simpleStorage.sol\":186:326  function store(uint256 _favnumber)public{\r... */\n            tag_18:\n                /* \"contracts/simpleStorage.sol\":248:258  _favnumber */\n              dup1\n                /* \"contracts/simpleStorage.sol\":237:247  HelloWorld */\n              0x00\n                /* \"contracts/simpleStorage.sol\":237:258  HelloWorld=_favnumber */\n              dup2\n              swap1\n              sstore\n              pop\n                /* \"contracts/simpleStorage.sol\":186:326  function store(uint256 _favnumber)public{\r... */\n              pop\n              jump\t// out\n                /* \"contracts/simpleStorage.sol\":332:403  People public person=People({\r... */\n            tag_20:\n              0x02\n              dup1\n              0x00\n              add\n              sload\n              swap1\n              dup1\n              0x01\n              add\n              dup1\n              sload\n              tag_41\n              swap1\n              tag_42\n              jump\t// in\n            tag_41:\n              dup1\n              0x1f\n              add\n              0x20\n              dup1\n              swap2\n              div\n              mul\n              0x20\n              add\n              mload(0x40)\n              swap1\n              dup2\n              add\n              0x40\n              mstore\n              dup1\n              swap3\n              swap2\n              swap1\n              dup2\n              dup2\n              mstore\n              0x20\n              add\n              dup3\n              dup1\n              sload\n              tag_43\n              swap1\n              tag_42\n              jump\t// in\n            tag_43:\n              dup1\n              iszero\n              tag_44\n              jumpi\n              dup1\n              0x1f\n              lt\n              tag_45\n              jumpi\n              0x0100\n              dup1\n              dup4\n              sload\n              div\n              mul\n              dup4\n              mstore\n              swap2\n              0x20\n              add\n              swap2\n              jump(tag_44)\n            tag_45:\n              dup3\n              add\n              swap2\n              swap1\n              0x00\n              mstore\n              keccak256(0x00, 0x20)\n              swap1\n            tag_46:\n              dup2\n              sload\n              dup2\n              mstore\n              swap1\n              0x01\n              add\n              swap1\n              0x20\n              add\n              dup1\n              dup4\n              gt\n              tag_46\n              jumpi\n              dup3\n              swap1\n              sub\n              0x1f\n              and\n              dup3\n              add\n              swap2\n            tag_44:\n              pop\n              pop\n              pop\n              pop\n              pop\n              swap1\n              pop\n              dup3\n              jump\t// out\n                /* \"contracts/simpleStorage.sol\":97:122  uint256 public HelloWorld */\n            tag_24:\n              sload(0x00)\n              dup2\n              jump\t// out\n                /* \"contracts/simpleStorage.sol\":539:561  People[] public people */\n            tag_28:\n              0x04\n              dup2\n              dup2\n              sload\n              dup2\n              lt\n              tag_47\n              jumpi\n              0x00\n              dup1\n              revert\n            tag_47:\n              swap1\n              0x00\n              mstore\n              keccak256(0x00, 0x20)\n              swap1\n              0x02\n              mul\n              add\n              0x00\n              swap2\n              pop\n              swap1\n              pop\n              dup1\n              0x00\n              add\n              sload\n              swap1\n              dup1\n              0x01\n              add\n              dup1\n              sload\n              tag_49\n              swap1\n              tag_42\n              jump\t// in\n            tag_49:\n              dup1\n              0x1f\n              add\n              0x20\n              dup1\n              swap2\n              div\n              mul\n              0x20\n              add\n              mload(0x40)\n              swap1\n              dup2\n              add\n              0x40\n              mstore\n              dup1\n              swap3\n              swap2\n              swap1\n              dup2\n              dup2\n              mstore\n              0x20\n              add\n              dup3\n              dup1\n              sload\n              tag_50\n              swap1\n              tag_42\n              jump\t// in\n            tag_50:\n              dup1\n              iszero\n              tag_51\n              jumpi\n              dup1\n              0x1f\n              lt\n              tag_52\n              jumpi\n              0x0100\n              dup1\n              dup4\n              sload\n              div\n              mul\n              dup4\n              mstore\n              swap2\n              0x20\n              add\n              swap2\n              jump(tag_51)\n            tag_52:\n              dup3\n              add\n              swap2\n              swap1\n              0x00\n              mstore\n              keccak256(0x00, 0x20)\n              swap1\n            tag_53:\n              dup2\n              sload\n              dup2\n              mstore\n              swap1\n              0x01\n              add\n              swap1\n              0x20\n              add\n              dup1\n              dup4\n              gt\n              tag_53\n              jumpi\n              dup3\n              swap1\n              sub\n              0x1f\n              and\n              dup3\n              add\n              swap2\n            tag_51:\n              pop\n              pop\n              pop\n              pop\n              pop\n              swap1\n              pop\n              dup3\n              jump\t// out\n                /* \"contracts/simpleStorage.sol\":663:847  function addperson (string memory _name,uint256 _favnumber)public{\r... */\n            tag_33:\n                /* \"contracts/simpleStorage.sol\":739:745  people */\n              0x04\n                /* \"contracts/simpleStorage.sol\":751:792  People({favnumber:_favnumber,name:_name}) */\n              mload(0x40)\n              dup1\n              0x40\n              add\n              0x40\n              mstore\n              dup1\n                /* \"contracts/simpleStorage.sol\":769:779  _favnumber */\n              dup4\n                /* \"contracts/simpleStorage.sol\":751:792  People({favnumber:_favnumber,name:_name}) */\n              dup2\n              mstore\n              0x20\n              add\n                /* \"contracts/simpleStorage.sol\":785:790  _name */\n              dup5\n                /* \"contracts/simpleStorage.sol\":751:792  People({favnumber:_favnumber,name:_name}) */\n              dup2\n              mstore\n              pop\n                /* \"contracts/simpleStorage.sol\":739:793  people.push(People({favnumber:_favnumber,name:_name})) */\n              swap1\n              dup1\n              0x01\n              dup2\n              sload\n              add\n              dup1\n              dup3\n              sstore\n              dup1\n              swap2\n              pop\n              pop\n              0x01\n              swap1\n              sub\n              swap1\n              0x00\n              mstore\n              keccak256(0x00, 0x20)\n              swap1\n              0x02\n              mul\n              add\n              0x00\n              swap1\n              swap2\n              swap1\n              swap2\n              swap1\n              swap2\n              pop\n              0x00\n              dup3\n              add\n              mload\n              dup2\n              0x00\n              add\n              sstore\n              0x20\n              dup3\n              add\n              mload\n              dup2\n              0x01\n              add\n              swap1\n              dup1\n              mload\n              swap1\n              0x20\n              add\n              swap1\n              tag_56\n              swap3\n              swap2\n              swap1\n              tag_57\n              jump\t// in\n            tag_56:\n              pop\n              pop\n              pop\n                /* \"contracts/simpleStorage.sol\":827:837  _favnumber */\n              dup1\n                /* \"contracts/simpleStorage.sol\":804:819  nametofavnumber */\n              0x01\n                /* \"contracts/simpleStorage.sol\":820:825  _name */\n              dup4\n                /* \"contracts/simpleStorage.sol\":804:826  nametofavnumber[_name] */\n              mload(0x40)\n              tag_58\n              swap2\n              swap1\n              tag_59\n              jump\t// in\n            tag_58:\n              swap1\n              dup2\n              mstore\n              0x20\n              add\n              mload(0x40)\n              dup1\n              swap2\n              sub\n              swap1\n              keccak256\n                /* \"contracts/simpleStorage.sol\":804:837  nametofavnumber[_name]=_favnumber */\n              dup2\n              swap1\n              sstore\n              pop\n                /* \"contracts/simpleStorage.sol\":663:847  function addperson (string memory _name,uint256 _favnumber)public{\r... */\n              pop\n              pop\n              jump\t// out\n                /* \"contracts/simpleStorage.sol\":129:177  mapping(string =>uint256) public nametofavnumber */\n            tag_37:\n              0x01\n              dup2\n              dup1\n              mload\n              0x20\n              dup2\n              add\n              dup3\n              add\n              dup1\n              mload\n              dup5\n              dup3\n              mstore\n              0x20\n              dup4\n              add\n              0x20\n              dup6\n              add\n              keccak256\n              dup2\n              dup4\n              mstore\n              dup1\n              swap6\n              pop\n              pop\n              pop\n              pop\n              pop\n              pop\n              0x00\n              swap2\n              pop\n              swap1\n              pop\n              sload\n              dup2\n              jump\t// out\n            tag_57:\n              dup3\n              dup1\n              sload\n              tag_60\n              swap1\n              tag_42\n              jump\t// in\n            tag_60:\n              swap1\n              0x00\n              mstore\n              keccak256(0x00, 0x20)\n              swap1\n              0x1f\n              add\n              0x20\n              swap1\n              div\n              dup2\n              add\n              swap3\n              dup3\n              tag_62\n              jumpi\n              0x00\n              dup6\n              sstore\n              jump(tag_61)\n            tag_62:\n              dup3\n              0x1f\n              lt\n              tag_63\n              jumpi\n              dup1\n              mload\n              not(0xff)\n              and\n              dup4\n              dup1\n              add\n              or\n              dup6\n              sstore\n              jump(tag_61)\n            tag_63:\n              dup3\n              dup1\n              add\n              0x01\n              add\n              dup6\n              sstore\n              dup3\n              iszero\n              tag_61\n              jumpi\n              swap2\n              dup3\n              add\n            tag_64:\n              dup3\n              dup2\n              gt\n              iszero\n              tag_65\n              jumpi\n              dup3\n              mload\n              dup3\n              sstore\n              swap2\n              0x20\n              add\n              swap2\n              swap1\n              0x01\n              add\n              swap1\n              jump(tag_64)\n            tag_65:\n            tag_61:\n              pop\n              swap1\n              pop\n              tag_66\n              swap2\n              swap1\n              tag_67\n              jump\t// in\n            tag_66:\n              pop\n              swap1\n              jump\t// out\n            tag_67:\n            tag_68:\n              dup1\n              dup3\n              gt\n              iszero\n              tag_69\n              jumpi\n              0x00\n              dup2\n              0x00\n              swap1\n              sstore\n              pop\n              0x01\n              add\n              jump(tag_68)\n            tag_69:\n              pop\n              swap1\n              jump\t// out\n                /* \"#utility.yul\":7:419   */\n            tag_71:\n                /* \"#utility.yul\":85:90   */\n              0x00\n                /* \"#utility.yul\":110:176   */\n              tag_73\n                /* \"#utility.yul\":126:175   */\n              tag_74\n                /* \"#utility.yul\":168:174   */\n              dup5\n                /* \"#utility.yul\":126:175   */\n              tag_75\n              jump\t// in\n            tag_74:\n                /* \"#utility.yul\":110:176   */\n              tag_76\n              jump\t// in\n            tag_73:\n                /* \"#utility.yul\":101:176   */\n              swap1\n              pop\n                /* \"#utility.yul\":199:205   */\n              dup3\n                /* \"#utility.yul\":192:197   */\n              dup2\n                /* \"#utility.yul\":185:206   */\n              mstore\n                /* \"#utility.yul\":237:241   */\n              0x20\n                /* \"#utility.yul\":230:235   */\n              dup2\n                /* \"#utility.yul\":226:242   */\n              add\n                /* \"#utility.yul\":275:278   */\n              dup5\n                /* \"#utility.yul\":266:272   */\n              dup5\n                /* \"#utility.yul\":261:264   */\n              dup5\n                /* \"#utility.yul\":257:273   */\n              add\n                /* \"#utility.yul\":254:279   */\n              gt\n                /* \"#utility.yul\":251:363   */\n              iszero\n              tag_77\n              jumpi\n                /* \"#utility.yul\":282:361   */\n              tag_78\n              tag_79\n              jump\t// in\n            tag_78:\n                /* \"#utility.yul\":251:363   */\n            tag_77:\n                /* \"#utility.yul\":372:413   */\n              tag_80\n                /* \"#utility.yul\":406:412   */\n              dup5\n                /* \"#utility.yul\":401:404   */\n              dup3\n                /* \"#utility.yul\":396:399   */\n              dup6\n                /* \"#utility.yul\":372:413   */\n              tag_81\n              jump\t// in\n            tag_80:\n                /* \"#utility.yul\":91:419   */\n              pop\n                /* \"#utility.yul\":7:419   */\n              swap4\n              swap3\n              pop\n              pop\n              pop\n              jump\t// out\n                /* \"#utility.yul\":439:779   */\n            tag_82:\n                /* \"#utility.yul\":495:500   */\n              0x00\n                /* \"#utility.yul\":544:547   */\n              dup3\n                /* \"#utility.yul\":537:541   */\n              0x1f\n                /* \"#utility.yul\":529:535   */\n              dup4\n                /* \"#utility.yul\":525:542   */\n              add\n                /* \"#utility.yul\":521:548   */\n              slt\n                /* \"#utility.yul\":511:633   */\n              tag_84\n              jumpi\n                /* \"#utility.yul\":552:631   */\n              tag_85\n              tag_86\n              jump\t// in\n            tag_85:\n                /* \"#utility.yul\":511:633   */\n            tag_84:\n                /* \"#utility.yul\":669:675   */\n              dup2\n                /* \"#utility.yul\":656:676   */\n              calldataload\n                /* \"#utility.yul\":694:773   */\n              tag_87\n                /* \"#utility.yul\":769:772   */\n              dup5\n                /* \"#utility.yul\":761:767   */\n              dup3\n                /* \"#utility.yul\":754:758   */\n              0x20\n                /* \"#utility.yul\":746:752   */\n              dup7\n                /* \"#utility.yul\":742:759   */\n              add\n                /* \"#utility.yul\":694:773   */\n              tag_71\n              jump\t// in\n            tag_87:\n                /* \"#utility.yul\":685:773   */\n              swap2\n              pop\n                /* \"#utility.yul\":501:779   */\n              pop\n                /* \"#utility.yul\":439:779   */\n              swap3\n              swap2\n              pop\n              pop\n              jump\t// out\n                /* \"#utility.yul\":785:924   */\n            tag_88:\n                /* \"#utility.yul\":831:836   */\n              0x00\n                /* \"#utility.yul\":869:875   */\n              dup2\n                /* \"#utility.yul\":856:876   */\n              calldataload\n                /* \"#utility.yul\":847:876   */\n              swap1\n              pop\n                /* \"#utility.yul\":885:918   */\n              tag_90\n                /* \"#utility.yul\":912:917   */\n              dup2\n                /* \"#utility.yul\":885:918   */\n              tag_91\n              jump\t// in\n            tag_90:\n                /* \"#utility.yul\":785:924   */\n              swap3\n              swap2\n              pop\n              pop\n              jump\t// out\n                /* \"#utility.yul\":930:1439   */\n            tag_36:\n                /* \"#utility.yul\":999:1005   */\n              0x00\n                /* \"#utility.yul\":1048:1050   */\n              0x20\n                /* \"#utility.yul\":1036:1045   */\n              dup3\n                /* \"#utility.yul\":1027:1034   */\n              dup5\n                /* \"#utility.yul\":1023:1046   */\n              sub\n                /* \"#utility.yul\":1019:1051   */\n              slt\n                /* \"#utility.yul\":1016:1135   */\n              iszero\n              tag_93\n              jumpi\n                /* \"#utility.yul\":1054:1133   */\n              tag_94\n              tag_95\n              jump\t// in\n            tag_94:\n                /* \"#utility.yul\":1016:1135   */\n            tag_93:\n                /* \"#utility.yul\":1202:1203   */\n              0x00\n                /* \"#utility.yul\":1191:1200   */\n              dup3\n                /* \"#utility.yul\":1187:1204   */\n              add\n                /* \"#utility.yul\":1174:1205   */\n              calldataload\n                /* \"#utility.yul\":1232:1250   */\n              0xffffffffffffffff\n                /* \"#utility.yul\":1224:1230   */\n              dup2\n                /* \"#utility.yul\":1221:1251   */\n              gt\n                /* \"#utility.yul\":1218:1335   */\n              iszero\n              tag_96\n              jumpi\n                /* \"#utility.yul\":1254:1333   */\n              tag_97\n              tag_98\n              jump\t// in\n            tag_97:\n                /* \"#utility.yul\":1218:1335   */\n            tag_96:\n                /* \"#utility.yul\":1359:1422   */\n              tag_99\n                /* \"#utility.yul\":1414:1421   */\n              dup5\n                /* \"#utility.yul\":1405:1411   */\n              dup3\n                /* \"#utility.yul\":1394:1403   */\n              dup6\n                /* \"#utility.yul\":1390:1412   */\n              add\n                /* \"#utility.yul\":1359:1422   */\n              tag_82\n              jump\t// in\n            tag_99:\n                /* \"#utility.yul\":1349:1422   */\n              swap2\n              pop\n                /* \"#utility.yul\":1145:1432   */\n              pop\n                /* \"#utility.yul\":930:1439   */\n              swap3\n              swap2\n              pop\n              pop\n              jump\t// out\n                /* \"#utility.yul\":1445:2099   */\n            tag_32:\n                /* \"#utility.yul\":1523:1529   */\n              0x00\n                /* \"#utility.yul\":1531:1537   */\n              dup1\n                /* \"#utility.yul\":1580:1582   */\n              0x40\n                /* \"#utility.yul\":1568:1577   */\n              dup4\n                /* \"#utility.yul\":1559:1566   */\n              dup6\n                /* \"#utility.yul\":1555:1578   */\n              sub\n                /* \"#utility.yul\":1551:1583   */\n              slt\n                /* \"#utility.yul\":1548:1667   */\n              iszero\n              tag_101\n              jumpi\n                /* \"#utility.yul\":1586:1665   */\n              tag_102\n              tag_95\n              jump\t// in\n            tag_102:\n                /* \"#utility.yul\":1548:1667   */\n            tag_101:\n                /* \"#utility.yul\":1734:1735   */\n              0x00\n                /* \"#utility.yul\":1723:1732   */\n              dup4\n                /* \"#utility.yul\":1719:1736   */\n              add\n                /* \"#utility.yul\":1706:1737   */\n              calldataload\n                /* \"#utility.yul\":1764:1782   */\n              0xffffffffffffffff\n                /* \"#utility.yul\":1756:1762   */\n              dup2\n                /* \"#utility.yul\":1753:1783   */\n              gt\n                /* \"#utility.yul\":1750:1867   */\n              iszero\n              tag_103\n              jumpi\n                /* \"#utility.yul\":1786:1865   */\n              tag_104\n              tag_98\n              jump\t// in\n            tag_104:\n                /* \"#utility.yul\":1750:1867   */\n            tag_103:\n                /* \"#utility.yul\":1891:1954   */\n              tag_105\n                /* \"#utility.yul\":1946:1953   */\n              dup6\n                /* \"#utility.yul\":1937:1943   */\n              dup3\n                /* \"#utility.yul\":1926:1935   */\n              dup7\n                /* \"#utility.yul\":1922:1944   */\n              add\n                /* \"#utility.yul\":1891:1954   */\n              tag_82\n              jump\t// in\n            tag_105:\n                /* \"#utility.yul\":1881:1954   */\n              swap3\n              pop\n                /* \"#utility.yul\":1677:1964   */\n              pop\n                /* \"#utility.yul\":2003:2005   */\n              0x20\n                /* \"#utility.yul\":2029:2082   */\n              tag_106\n                /* \"#utility.yul\":2074:2081   */\n              dup6\n                /* \"#utility.yul\":2065:2071   */\n              dup3\n                /* \"#utility.yul\":2054:2063   */\n              dup7\n                /* \"#utility.yul\":2050:2072   */\n              add\n                /* \"#utility.yul\":2029:2082   */\n              tag_88\n              jump\t// in\n            tag_106:\n                /* \"#utility.yul\":2019:2082   */\n              swap2\n              pop\n                /* \"#utility.yul\":1974:2092   */\n              pop\n                /* \"#utility.yul\":1445:2099   */\n              swap3\n              pop\n              swap3\n              swap1\n              pop\n              jump\t// out\n                /* \"#utility.yul\":2105:2434   */\n            tag_17:\n                /* \"#utility.yul\":2164:2170   */\n              0x00\n                /* \"#utility.yul\":2213:2215   */\n              0x20\n                /* \"#utility.yul\":2201:2210   */\n              dup3\n                /* \"#utility.yul\":2192:2199   */\n              dup5\n                /* \"#utility.yul\":2188:2211   */\n              sub\n                /* \"#utility.yul\":2184:2216   */\n              slt\n                /* \"#utility.yul\":2181:2300   */\n              iszero\n              tag_108\n              jumpi\n                /* \"#utility.yul\":2219:2298   */\n              tag_109\n              tag_95\n              jump\t// in\n            tag_109:\n                /* \"#utility.yul\":2181:2300   */\n            tag_108:\n                /* \"#utility.yul\":2339:2340   */\n              0x00\n                /* \"#utility.yul\":2364:2417   */\n              tag_110\n                /* \"#utility.yul\":2409:2416   */\n              dup5\n                /* \"#utility.yul\":2400:2406   */\n              dup3\n                /* \"#utility.yul\":2389:2398   */\n              dup6\n                /* \"#utility.yul\":2385:2407   */\n              add\n                /* \"#utility.yul\":2364:2417   */\n              tag_88\n              jump\t// in\n            tag_110:\n                /* \"#utility.yul\":2354:2417   */\n              swap2\n              pop\n                /* \"#utility.yul\":2310:2427   */\n              pop\n                /* \"#utility.yul\":2105:2434   */\n              swap3\n              swap2\n              pop\n              pop\n              jump\t// out\n                /* \"#utility.yul\":2440:2804   */\n            tag_111:\n                /* \"#utility.yul\":2528:2531   */\n              0x00\n                /* \"#utility.yul\":2556:2595   */\n              tag_113\n                /* \"#utility.yul\":2589:2594   */\n              dup3\n                /* \"#utility.yul\":2556:2595   */\n              tag_114\n              jump\t// in\n            tag_113:\n                /* \"#utility.yul\":2611:2682   */\n              tag_115\n                /* \"#utility.yul\":2675:2681   */\n              dup2\n                /* \"#utility.yul\":2670:2673   */\n              dup6\n                /* \"#utility.yul\":2611:2682   */\n              tag_116\n              jump\t// in\n            tag_115:\n                /* \"#utility.yul\":2604:2682   */\n              swap4\n              pop\n                /* \"#utility.yul\":2691:2743   */\n              tag_117\n                /* \"#utility.yul\":2736:2742   */\n              dup2\n                /* \"#utility.yul\":2731:2734   */\n              dup6\n                /* \"#utility.yul\":2724:2728   */\n              0x20\n                /* \"#utility.yul\":2717:2722   */\n              dup7\n                /* \"#utility.yul\":2713:2729   */\n              add\n                /* \"#utility.yul\":2691:2743   */\n              tag_118\n              jump\t// in\n            tag_117:\n                /* \"#utility.yul\":2768:2797   */\n              tag_119\n                /* \"#utility.yul\":2790:2796   */\n              dup2\n                /* \"#utility.yul\":2768:2797   */\n              tag_120\n              jump\t// in\n            tag_119:\n                /* \"#utility.yul\":2763:2766   */\n              dup5\n                /* \"#utility.yul\":2759:2798   */\n              add\n                /* \"#utility.yul\":2752:2798   */\n              swap2\n              pop\n                /* \"#utility.yul\":2532:2804   */\n              pop\n                /* \"#utility.yul\":2440:2804   */\n              swap3\n              swap2\n              pop\n              pop\n              jump\t// out\n                /* \"#utility.yul\":2810:3187   */\n            tag_121:\n                /* \"#utility.yul\":2916:2919   */\n              0x00\n                /* \"#utility.yul\":2944:2983   */\n              tag_123\n                /* \"#utility.yul\":2977:2982   */\n              dup3\n                /* \"#utility.yul\":2944:2983   */\n              tag_114\n              jump\t// in\n            tag_123:\n                /* \"#utility.yul\":2999:3088   */\n              tag_124\n                /* \"#utility.yul\":3081:3087   */\n              dup2\n                /* \"#utility.yul\":3076:3079   */\n              dup6\n                /* \"#utility.yul\":2999:3088   */\n              tag_125\n              jump\t// in\n            tag_124:\n                /* \"#utility.yul\":2992:3088   */\n              swap4\n              pop\n                /* \"#utility.yul\":3097:3149   */\n              tag_126\n                /* \"#utility.yul\":3142:3148   */\n              dup2\n                /* \"#utility.yul\":3137:3140   */\n              dup6\n                /* \"#utility.yul\":3130:3134   */\n              0x20\n                /* \"#utility.yul\":3123:3128   */\n              dup7\n                /* \"#utility.yul\":3119:3135   */\n              add\n                /* \"#utility.yul\":3097:3149   */\n              tag_118\n              jump\t// in\n            tag_126:\n                /* \"#utility.yul\":3174:3180   */\n              dup1\n                /* \"#utility.yul\":3169:3172   */\n              dup5\n                /* \"#utility.yul\":3165:3181   */\n              add\n                /* \"#utility.yul\":3158:3181   */\n              swap2\n              pop\n                /* \"#utility.yul\":2920:3187   */\n              pop\n                /* \"#utility.yul\":2810:3187   */\n              swap3\n              swap2\n              pop\n              pop\n              jump\t// out\n                /* \"#utility.yul\":3193:3311   */\n            tag_127:\n                /* \"#utility.yul\":3280:3304   */\n              tag_129\n                /* \"#utility.yul\":3298:3303   */\n              dup2\n                /* \"#utility.yul\":3280:3304   */\n              tag_130\n              jump\t// in\n            tag_129:\n                /* \"#utility.yul\":3275:3278   */\n              dup3\n                /* \"#utility.yul\":3268:3305   */\n              mstore\n                /* \"#utility.yul\":3193:3311   */\n              pop\n              pop\n              jump\t// out\n                /* \"#utility.yul\":3317:3592   */\n            tag_59:\n                /* \"#utility.yul\":3449:3452   */\n              0x00\n                /* \"#utility.yul\":3471:3566   */\n              tag_132\n                /* \"#utility.yul\":3562:3565   */\n              dup3\n                /* \"#utility.yul\":3553:3559   */\n              dup5\n                /* \"#utility.yul\":3471:3566   */\n              tag_121\n              jump\t// in\n            tag_132:\n                /* \"#utility.yul\":3464:3566   */\n              swap2\n              pop\n                /* \"#utility.yul\":3583:3586   */\n              dup2\n                /* \"#utility.yul\":3576:3586   */\n              swap1\n              pop\n                /* \"#utility.yul\":3317:3592   */\n              swap3\n              swap2\n              pop\n              pop\n              jump\t// out\n                /* \"#utility.yul\":3598:3820   */\n            tag_14:\n                /* \"#utility.yul\":3691:3695   */\n              0x00\n                /* \"#utility.yul\":3729:3731   */\n              0x20\n                /* \"#utility.yul\":3718:3727   */\n              dup3\n                /* \"#utility.yul\":3714:3732   */\n              add\n                /* \"#utility.yul\":3706:3732   */\n              swap1\n              pop\n                /* \"#utility.yul\":3742:3813   */\n              tag_134\n                /* \"#utility.yul\":3810:3811   */\n              0x00\n                /* \"#utility.yul\":3799:3808   */\n              dup4\n                /* \"#utility.yul\":3795:3812   */\n              add\n                /* \"#utility.yul\":3786:3792   */\n              dup5\n                /* \"#utility.yul\":3742:3813   */\n              tag_127\n              jump\t// in\n            tag_134:\n                /* \"#utility.yul\":3598:3820   */\n              swap3\n              swap2\n              pop\n              pop\n              jump\t// out\n                /* \"#utility.yul\":3826:4249   */\n            tag_22:\n                /* \"#utility.yul\":3967:3971   */\n              0x00\n                /* \"#utility.yul\":4005:4007   */\n              0x40\n                /* \"#utility.yul\":3994:4003   */\n              dup3\n                /* \"#utility.yul\":3990:4008   */\n              add\n                /* \"#utility.yul\":3982:4008   */\n              swap1\n              pop\n                /* \"#utility.yul\":4018:4089   */\n              tag_136\n                /* \"#utility.yul\":4086:4087   */\n              0x00\n                /* \"#utility.yul\":4075:4084   */\n              dup4\n                /* \"#utility.yul\":4071:4088   */\n              add\n                /* \"#utility.yul\":4062:4068   */\n              dup6\n                /* \"#utility.yul\":4018:4089   */\n              tag_127\n              jump\t// in\n            tag_136:\n                /* \"#utility.yul\":4136:4145   */\n              dup2\n                /* \"#utility.yul\":4130:4134   */\n              dup2\n                /* \"#utility.yul\":4126:4146   */\n              sub\n                /* \"#utility.yul\":4121:4123   */\n              0x20\n                /* \"#utility.yul\":4110:4119   */\n              dup4\n                /* \"#utility.yul\":4106:4124   */\n              add\n                /* \"#utility.yul\":4099:4147   */\n              mstore\n                /* \"#utility.yul\":4164:4242   */\n              tag_137\n                /* \"#utility.yul\":4237:4241   */\n              dup2\n                /* \"#utility.yul\":4228:4234   */\n              dup5\n                /* \"#utility.yul\":4164:4242   */\n              tag_111\n              jump\t// in\n            tag_137:\n                /* \"#utility.yul\":4156:4242   */\n              swap1\n              pop\n                /* \"#utility.yul\":3826:4249   */\n              swap4\n              swap3\n              pop\n              pop\n              pop\n              jump\t// out\n                /* \"#utility.yul\":4255:4384   */\n            tag_76:\n                /* \"#utility.yul\":4289:4295   */\n              0x00\n                /* \"#utility.yul\":4316:4336   */\n              tag_139\n              tag_140\n              jump\t// in\n            tag_139:\n                /* \"#utility.yul\":4306:4336   */\n              swap1\n              pop\n                /* \"#utility.yul\":4345:4378   */\n              tag_141\n                /* \"#utility.yul\":4373:4377   */\n              dup3\n                /* \"#utility.yul\":4365:4371   */\n              dup3\n                /* \"#utility.yul\":4345:4378   */\n              tag_142\n              jump\t// in\n            tag_141:\n                /* \"#utility.yul\":4255:4384   */\n              swap2\n              swap1\n              pop\n              jump\t// out\n                /* \"#utility.yul\":4390:4465   */\n            tag_140:\n                /* \"#utility.yul\":4423:4429   */\n              0x00\n                /* \"#utility.yul\":4456:4458   */\n              0x40\n                /* \"#utility.yul\":4450:4459   */\n              mload\n                /* \"#utility.yul\":4440:4459   */\n              swap1\n              pop\n                /* \"#utility.yul\":4390:4465   */\n              swap1\n              jump\t// out\n                /* \"#utility.yul\":4471:4779   */\n            tag_75:\n                /* \"#utility.yul\":4533:4537   */\n              0x00\n                /* \"#utility.yul\":4623:4641   */\n              0xffffffffffffffff\n                /* \"#utility.yul\":4615:4621   */\n              dup3\n                /* \"#utility.yul\":4612:4642   */\n              gt\n                /* \"#utility.yul\":4609:4665   */\n              iszero\n              tag_145\n              jumpi\n                /* \"#utility.yul\":4645:4663   */\n              tag_146\n              tag_147\n              jump\t// in\n            tag_146:\n                /* \"#utility.yul\":4609:4665   */\n            tag_145:\n                /* \"#utility.yul\":4683:4712   */\n              tag_148\n                /* \"#utility.yul\":4705:4711   */\n              dup3\n                /* \"#utility.yul\":4683:4712   */\n              tag_120\n              jump\t// in\n            tag_148:\n                /* \"#utility.yul\":4675:4712   */\n              swap1\n              pop\n                /* \"#utility.yul\":4767:4771   */\n              0x20\n                /* \"#utility.yul\":4761:4765   */\n              dup2\n                /* \"#utility.yul\":4757:4772   */\n              add\n                /* \"#utility.yul\":4749:4772   */\n              swap1\n              pop\n                /* \"#utility.yul\":4471:4779   */\n              swap2\n              swap1\n              pop\n              jump\t// out\n                /* \"#utility.yul\":4785:4884   */\n            tag_114:\n                /* \"#utility.yul\":4837:4843   */\n              0x00\n                /* \"#utility.yul\":4871:4876   */\n              dup2\n                /* \"#utility.yul\":4865:4877   */\n              mload\n                /* \"#utility.yul\":4855:4877   */\n              swap1\n              pop\n                /* \"#utility.yul\":4785:4884   */\n              swap2\n              swap1\n              pop\n              jump\t// out\n                /* \"#utility.yul\":4890:5059   */\n            tag_116:\n                /* \"#utility.yul\":4974:4985   */\n              0x00\n                /* \"#utility.yul\":5008:5014   */\n              dup3\n                /* \"#utility.yul\":5003:5006   */\n              dup3\n                /* \"#utility.yul\":4996:5015   */\n              mstore\n                /* \"#utility.yul\":5048:5052   */\n              0x20\n                /* \"#utility.yul\":5043:5046   */\n              dup3\n                /* \"#utility.yul\":5039:5053   */\n              add\n                /* \"#utility.yul\":5024:5053   */\n              swap1\n              pop\n                /* \"#utility.yul\":4890:5059   */\n              swap3\n              swap2\n              pop\n              pop\n              jump\t// out\n                /* \"#utility.yul\":5065:5213   */\n            tag_125:\n                /* \"#utility.yul\":5167:5178   */\n              0x00\n                /* \"#utility.yul\":5204:5207   */\n              dup2\n                /* \"#utility.yul\":5189:5207   */\n              swap1\n              pop\n                /* \"#utility.yul\":5065:5213   */\n              swap3\n              swap2\n              pop\n              pop\n              jump\t// out\n                /* \"#utility.yul\":5219:5296   */\n            tag_130:\n                /* \"#utility.yul\":5256:5263   */\n              0x00\n                /* \"#utility.yul\":5285:5290   */\n              dup2\n                /* \"#utility.yul\":5274:5290   */\n              swap1\n              pop\n                /* \"#utility.yul\":5219:5296   */\n              swap2\n              swap1\n              pop\n              jump\t// out\n                /* \"#utility.yul\":5302:5456   */\n            tag_81:\n                /* \"#utility.yul\":5386:5392   */\n              dup3\n                /* \"#utility.yul\":5381:5384   */\n              dup2\n                /* \"#utility.yul\":5376:5379   */\n              dup4\n                /* \"#utility.yul\":5363:5393   */\n              calldatacopy\n                /* \"#utility.yul\":5448:5449   */\n              0x00\n                /* \"#utility.yul\":5439:5445   */\n              dup4\n                /* \"#utility.yul\":5434:5437   */\n              dup4\n                /* \"#utility.yul\":5430:5446   */\n              add\n                /* \"#utility.yul\":5423:5450   */\n              mstore\n                /* \"#utility.yul\":5302:5456   */\n              pop\n              pop\n              pop\n              jump\t// out\n                /* \"#utility.yul\":5462:5769   */\n            tag_118:\n                /* \"#utility.yul\":5530:5531   */\n              0x00\n                /* \"#utility.yul\":5540:5653   */\n            tag_155:\n                /* \"#utility.yul\":5554:5560   */\n              dup4\n                /* \"#utility.yul\":5551:5552   */\n              dup2\n                /* \"#utility.yul\":5548:5561   */\n              lt\n                /* \"#utility.yul\":5540:5653   */\n              iszero\n              tag_157\n              jumpi\n                /* \"#utility.yul\":5639:5640   */\n              dup1\n                /* \"#utility.yul\":5634:5637   */\n              dup3\n                /* \"#utility.yul\":5630:5641   */\n              add\n                /* \"#utility.yul\":5624:5642   */\n              mload\n                /* \"#utility.yul\":5620:5621   */\n              dup2\n                /* \"#utility.yul\":5615:5618   */\n              dup5\n                /* \"#utility.yul\":5611:5622   */\n              add\n                /* \"#utility.yul\":5604:5643   */\n              mstore\n                /* \"#utility.yul\":5576:5578   */\n              0x20\n                /* \"#utility.yul\":5573:5574   */\n              dup2\n                /* \"#utility.yul\":5569:5579   */\n              add\n                /* \"#utility.yul\":5564:5579   */\n              swap1\n              pop\n                /* \"#utility.yul\":5540:5653   */\n              jump(tag_155)\n            tag_157:\n                /* \"#utility.yul\":5671:5677   */\n              dup4\n                /* \"#utility.yul\":5668:5669   */\n              dup2\n                /* \"#utility.yul\":5665:5678   */\n              gt\n                /* \"#utility.yul\":5662:5763   */\n              iszero\n              tag_158\n              jumpi\n                /* \"#utility.yul\":5751:5752   */\n              0x00\n                /* \"#utility.yul\":5742:5748   */\n              dup5\n                /* \"#utility.yul\":5737:5740   */\n              dup5\n                /* \"#utility.yul\":5733:5749   */\n              add\n                /* \"#utility.yul\":5726:5753   */\n              mstore\n                /* \"#utility.yul\":5662:5763   */\n            tag_158:\n                /* \"#utility.yul\":5511:5769   */\n              pop\n                /* \"#utility.yul\":5462:5769   */\n              pop\n              pop\n              pop\n              jump\t// out\n                /* \"#utility.yul\":5775:6095   */\n            tag_42:\n                /* \"#utility.yul\":5819:5825   */\n              0x00\n                /* \"#utility.yul\":5856:5857   */\n              0x02\n                /* \"#utility.yul\":5850:5854   */\n              dup3\n                /* \"#utility.yul\":5846:5858   */\n              div\n                /* \"#utility.yul\":5836:5858   */\n              swap1\n              pop\n                /* \"#utility.yul\":5903:5904   */\n              0x01\n                /* \"#utility.yul\":5897:5901   */\n              dup3\n                /* \"#utility.yul\":5893:5905   */\n              and\n                /* \"#utility.yul\":5924:5942   */\n              dup1\n                /* \"#utility.yul\":5914:5995   */\n              tag_160\n              jumpi\n                /* \"#utility.yul\":5980:5984   */\n              0x7f\n                /* \"#utility.yul\":5972:5978   */\n              dup3\n                /* \"#utility.yul\":5968:5985   */\n              and\n                /* \"#utility.yul\":5958:5985   */\n              swap2\n              pop\n                /* \"#utility.yul\":5914:5995   */\n            tag_160:\n                /* \"#utility.yul\":6042:6044   */\n              0x20\n                /* \"#utility.yul\":6034:6040   */\n              dup3\n                /* \"#utility.yul\":6031:6045   */\n              lt\n                /* \"#utility.yul\":6011:6029   */\n              dup2\n                /* \"#utility.yul\":6008:6046   */\n              eq\n                /* \"#utility.yul\":6005:6089   */\n              iszero\n              tag_161\n              jumpi\n                /* \"#utility.yul\":6061:6079   */\n              tag_162\n              tag_163\n              jump\t// in\n            tag_162:\n                /* \"#utility.yul\":6005:6089   */\n            tag_161:\n                /* \"#utility.yul\":5826:6095   */\n              pop\n                /* \"#utility.yul\":5775:6095   */\n              swap2\n              swap1\n              pop\n              jump\t// out\n                /* \"#utility.yul\":6101:6382   */\n            tag_142:\n                /* \"#utility.yul\":6184:6211   */\n              tag_165\n                /* \"#utility.yul\":6206:6210   */\n              dup3\n                /* \"#utility.yul\":6184:6211   */\n              tag_120\n              jump\t// in\n            tag_165:\n                /* \"#utility.yul\":6176:6182   */\n              dup2\n                /* \"#utility.yul\":6172:6212   */\n              add\n                /* \"#utility.yul\":6314:6320   */\n              dup2\n                /* \"#utility.yul\":6302:6312   */\n              dup2\n                /* \"#utility.yul\":6299:6321   */\n              lt\n                /* \"#utility.yul\":6278:6296   */\n              0xffffffffffffffff\n                /* \"#utility.yul\":6266:6276   */\n              dup3\n                /* \"#utility.yul\":6263:6297   */\n              gt\n                /* \"#utility.yul\":6260:6322   */\n              or\n                /* \"#utility.yul\":6257:6345   */\n              iszero\n              tag_166\n              jumpi\n                /* \"#utility.yul\":6325:6343   */\n              tag_167\n              tag_147\n              jump\t// in\n            tag_167:\n                /* \"#utility.yul\":6257:6345   */\n            tag_166:\n                /* \"#utility.yul\":6365:6375   */\n              dup1\n                /* \"#utility.yul\":6361:6363   */\n              0x40\n                /* \"#utility.yul\":6354:6376   */\n              mstore\n                /* \"#utility.yul\":6144:6382   */\n              pop\n                /* \"#utility.yul\":6101:6382   */\n              pop\n              pop\n              jump\t// out\n                /* \"#utility.yul\":6388:6568   */\n            tag_163:\n                /* \"#utility.yul\":6436:6513   */\n              0x4e487b7100000000000000000000000000000000000000000000000000000000\n                /* \"#utility.yul\":6433:6434   */\n              0x00\n                /* \"#utility.yul\":6426:6514   */\n              mstore\n                /* \"#utility.yul\":6533:6537   */\n              0x22\n                /* \"#utility.yul\":6530:6531   */\n              0x04\n                /* \"#utility.yul\":6523:6538   */\n              mstore\n                /* \"#utility.yul\":6557:6561   */\n              0x24\n                /* \"#utility.yul\":6554:6555   */\n              0x00\n                /* \"#utility.yul\":6547:6562   */\n              revert\n                /* \"#utility.yul\":6574:6754   */\n            tag_147:\n                /* \"#utility.yul\":6622:6699   */\n              0x4e487b7100000000000000000000000000000000000000000000000000000000\n                /* \"#utility.yul\":6619:6620   */\n              0x00\n                /* \"#utility.yul\":6612:6700   */\n              mstore\n                /* \"#utility.yul\":6719:6723   */\n              0x41\n                /* \"#utility.yul\":6716:6717   */\n              0x04\n                /* \"#utility.yul\":6709:6724   */\n              mstore\n                /* \"#utility.yul\":6743:6747   */\n              0x24\n                /* \"#utility.yul\":6740:6741   */\n              0x00\n                /* \"#utility.yul\":6733:6748   */\n              revert\n                /* \"#utility.yul\":6760:6877   */\n            tag_86:\n                /* \"#utility.yul\":6869:6870   */\n              0x00\n                /* \"#utility.yul\":6866:6867   */\n              dup1\n                /* \"#utility.yul\":6859:6871   */\n              revert\n                /* \"#utility.yul\":6883:7000   */\n            tag_79:\n                /* \"#utility.yul\":6992:6993   */\n              0x00\n                /* \"#utility.yul\":6989:6990   */\n              dup1\n                /* \"#utility.yul\":6982:6994   */\n              revert\n                /* \"#utility.yul\":7006:7123   */\n            tag_98:\n                /* \"#utility.yul\":7115:7116   */\n              0x00\n                /* \"#utility.yul\":7112:7113   */\n              dup1\n                /* \"#utility.yul\":7105:7117   */\n              revert\n                /* \"#utility.yul\":7129:7246   */\n            tag_95:\n                /* \"#utility.yul\":7238:7239   */\n              0x00\n                /* \"#utility.yul\":7235:7236   */\n              dup1\n                /* \"#utility.yul\":7228:7240   */\n              revert\n                /* \"#utility.yul\":7252:7354   */\n            tag_120:\n                /* \"#utility.yul\":7293:7299   */\n              0x00\n                /* \"#utility.yul\":7344:7346   */\n              0x1f\n                /* \"#utility.yul\":7340:7347   */\n              not\n                /* \"#utility.yul\":7335:7337   */\n              0x1f\n                /* \"#utility.yul\":7328:7333   */\n              dup4\n                /* \"#utility.yul\":7324:7338   */\n              add\n                /* \"#utility.yul\":7320:7348   */\n              and\n                /* \"#utility.yul\":7310:7348   */\n              swap1\n              pop\n                /* \"#utility.yul\":7252:7354   */\n              swap2\n              swap1\n              pop\n              jump\t// out\n                /* \"#utility.yul\":7360:7482   */\n            tag_91:\n                /* \"#utility.yul\":7433:7457   */\n              tag_176\n                /* \"#utility.yul\":7451:7456   */\n              dup2\n                /* \"#utility.yul\":7433:7457   */\n              tag_130\n              jump\t// in\n            tag_176:\n                /* \"#utility.yul\":7426:7431   */\n              dup2\n                /* \"#utility.yul\":7423:7458   */\n              eq\n                /* \"#utility.yul\":7413:7476   */\n              tag_177\n              jumpi\n                /* \"#utility.yul\":7472:7473   */\n              0x00\n                /* \"#utility.yul\":7469:7470   */\n              dup1\n                /* \"#utility.yul\":7462:7474   */\n              revert\n                /* \"#utility.yul\":7413:7476   */\n            tag_177:\n                /* \"#utility.yul\":7360:7482   */\n              pop\n              jump\t// out\n\n            auxdata: 0xa26469706673582212206c304ec2c32015888e24d865a4c0970e3360e932c8b2b4c70b752e9e0b96a99264736f6c63430008070033\n        }\n    }\n\n    auxdata: 0xa2646970667358221220a57aa9d4e991c63fbb12db812a1022a5e46fb6b94616fc530c52f812e4c600d264736f6c63430008070033\n}\n",
				"bytecode": {
					"linkReferences": {},
					"object": "608060405234801561001057600080fd5b50610f33806100206000396000f3fe608060405234801561001057600080fd5b506004361061004c5760003560e01c80630ad91b64146100515780630f7cfbaa146100815780636c7e373f1461008b578063caec2a5a146100bb575b600080fd5b61006b60048036038101906100669190610351565b6100d7565b6040516100789190610424565b60405180910390f35b61008961019b565b005b6100a560048036038101906100a09190610351565b61022e565b6040516100b29190610409565b60405180910390f35b6100d560048036038101906100d091906103ab565b61026d565b005b60008082815481106100ec576100eb61049f565b5b9060005260206000200160009054906101000a900473ffffffffffffffffffffffffffffffffffffffff1673ffffffffffffffffffffffffffffffffffffffff16632e64cec16040518163ffffffff1660e01b815260040160206040518083038186803b15801561015c57600080fd5b505afa158015610170573d6000803e3d6000fd5b505050506040513d601f19601f82011682018060405250810190610194919061037e565b9050919050565b60006040516101a99061031a565b604051809103906000f0801580156101c5573d6000803e3d6000fd5b5090506000819080600181540180825580915050600190039060005260206000200160009091909190916101000a81548173ffffffffffffffffffffffffffffffffffffffff021916908373ffffffffffffffffffffffffffffffffffffffff16021790555050565b6000818154811061023e57600080fd5b906000526020600020016000915054906101000a900473ffffffffffffffffffffffffffffffffffffffff1681565b600082815481106102815761028061049f565b5b9060005260206000200160009054906101000a900473ffffffffffffffffffffffffffffffffffffffff1673ffffffffffffffffffffffffffffffffffffffff16636057361d826040518263ffffffff1660e01b81526004016102e49190610424565b600060405180830381600087803b1580156102fe57600080fd5b505af1158015610312573d6000803e3d6000fd5b505050505050565b610a13806104eb83390190565b600081359050610336816104d3565b92915050565b60008151905061034b816104d3565b92915050565b600060208284031215610367576103666104ce565b5b600061037584828501610327565b91505092915050565b600060208284031215610394576103936104ce565b5b60006103a28482850161033c565b91505092915050565b600080604083850312156103c2576103c16104ce565b5b60006103d085828601610327565b92505060206103e185828601610327565b9150509250929050565b6103f481610469565b82525050565b6104038161045f565b82525050565b600060208201905061041e60008301846103eb565b92915050565b600060208201905061043960008301846103fa565b92915050565b600073ffffffffffffffffffffffffffffffffffffffff82169050919050565b6000819050919050565b60006104748261047b565b9050919050565b60006104868261048d565b9050919050565b60006104988261043f565b9050919050565b7f4e487b7100000000000000000000000000000000000000000000000000000000600052603260045260246000fd5b600080fd5b6104dc8161045f565b81146104e757600080fd5b5056fe60806040526040518060400160405280600281526020016040518060400160405280600581526020017f616b617368000000000000000000000000000000000000000000000000000000815250815250600260008201518160000155602082015181600101908051906020019061007792919061008c565b50505034801561008657600080fd5b50610190565b8280546100989061012f565b90600052602060002090601f0160209004810192826100ba5760008555610101565b82601f106100d357805160ff1916838001178555610101565b82800160010185558215610101579182015b828111156101005782518255916020019190600101906100e5565b5b50905061010e9190610112565b5090565b5b8082111561012b576000816000905550600101610113565b5090565b6000600282049050600182168061014757607f821691505b6020821081141561015b5761015a610161565b5b50919050565b7f4e487b7100000000000000000000000000000000000000000000000000000000600052602260045260246000fd5b6108748061019f6000396000f3fe608060405234801561001057600080fd5b506004361061007d5760003560e01c80637fffb7bd1161005b5780637fffb7bd146100db5780639e7a13ad146100f9578063e1b3202a1461012a578063e3cbb98e146101465761007d565b80632e64cec1146100825780636057361d146100a057806377ec2b55146100bc575b600080fd5b61008a610176565b604051610097919061062d565b60405180910390f35b6100ba60048036038101906100b59190610570565b61017f565b005b6100c4610189565b6040516100d2929190610648565b60405180910390f35b6100e3610223565b6040516100f0919061062d565b60405180910390f35b610113600480360381019061010e9190610570565b610229565b604051610121929190610648565b60405180910390f35b610144600480360381019061013f9190610514565b6102e5565b005b610160600480360381019061015b91906104cb565b610375565b60405161016d919061062d565b60405180910390f35b60008054905090565b8060008190555050565b60028060000154908060010180546101a090610741565b80601f01602080910402602001604051908101604052809291908181526020018280546101cc90610741565b80156102195780601f106101ee57610100808354040283529160200191610219565b820191906000526020600020905b8154815290600101906020018083116101fc57829003601f168201915b5050505050905082565b60005481565b6004818154811061023957600080fd5b906000526020600020906002020160009150905080600001549080600101805461026290610741565b80601f016020809104026020016040519081016040528092919081815260200182805461028e90610741565b80156102db5780601f106102b0576101008083540402835291602001916102db565b820191906000526020600020905b8154815290600101906020018083116102be57829003601f168201915b5050505050905082565b6004604051806040016040528083815260200184815250908060018154018082558091505060019003906000526020600020906002020160009091909190915060008201518160000155602082015181600101908051906020019061034b9291906103a3565b5050508060018360405161035f9190610616565b9081526020016040518091039020819055505050565b6001818051602081018201805184825260208301602085012081835280955050505050506000915090505481565b8280546103af90610741565b90600052602060002090601f0160209004810192826103d15760008555610418565b82601f106103ea57805160ff1916838001178555610418565b82800160010185558215610418579182015b828111156104175782518255916020019190600101906103fc565b5b5090506104259190610429565b5090565b5b8082111561044257600081600090555060010161042a565b5090565b60006104596104548461069d565b610678565b90508281526020810184848401111561047557610474610807565b5b6104808482856106ff565b509392505050565b600082601f83011261049d5761049c610802565b5b81356104ad848260208601610446565b91505092915050565b6000813590506104c581610827565b92915050565b6000602082840312156104e1576104e0610811565b5b600082013567ffffffffffffffff8111156104ff576104fe61080c565b5b61050b84828501610488565b91505092915050565b6000806040838503121561052b5761052a610811565b5b600083013567ffffffffffffffff8111156105495761054861080c565b5b61055585828601610488565b9250506020610566858286016104b6565b9150509250929050565b60006020828403121561058657610585610811565b5b6000610594848285016104b6565b91505092915050565b60006105a8826106ce565b6105b281856106d9565b93506105c281856020860161070e565b6105cb81610816565b840191505092915050565b60006105e1826106ce565b6105eb81856106ea565b93506105fb81856020860161070e565b80840191505092915050565b610610816106f5565b82525050565b600061062282846105d6565b915081905092915050565b60006020820190506106426000830184610607565b92915050565b600060408201905061065d6000830185610607565b818103602083015261066f818461059d565b90509392505050565b6000610682610693565b905061068e8282610773565b919050565b6000604051905090565b600067ffffffffffffffff8211156106b8576106b76107d3565b5b6106c182610816565b9050602081019050919050565b600081519050919050565b600082825260208201905092915050565b600081905092915050565b6000819050919050565b82818337600083830152505050565b60005b8381101561072c578082015181840152602081019050610711565b8381111561073b576000848401525b50505050565b6000600282049050600182168061075957607f821691505b6020821081141561076d5761076c6107a4565b5b50919050565b61077c82610816565b810181811067ffffffffffffffff8211171561079b5761079a6107d3565b5b80604052505050565b7f4e487b7100000000000000000000000000000000000000000000000000000000600052602260045260246000fd5b7f4e487b7100000000000000000000000000000000000000000000000000000000600052604160045260246000fd5b600080fd5b600080fd5b600080fd5b600080fd5b6000601f19601f8301169050919050565b610830816106f5565b811461083b57600080fd5b5056fea26469706673582212206c304ec2c32015888e24d865a4c0970e3360e932c8b2b4c70b752e9e0b96a99264736f6c63430008070033a2646970667358221220a57aa9d4e991c63fbb12db812a1022a5e46fb6b94616fc530c52f812e4c600d264736f6c63430008070033",
					"opcodes": "PUSH1 0x80 PUSH1 0x40 MSTORE CALLVALUE DUP1 ISZERO PUSH2 0x10 JUMPI PUSH1 0x0 DUP1 REVERT JUMPDEST POP PUSH2 0xF33 DUP1 PUSH2 0x20 PUSH1 0x0 CODECOPY PUSH1 0x0 RETURN INVALID PUSH1 0x80 PUSH1 0x40 MSTORE CALLVALUE DUP1 ISZERO PUSH2 0x10 JUMPI PUSH1 0x0 DUP1 REVERT JUMPDEST POP PUSH1 0x4 CALLDATASIZE LT PUSH2 0x4C JUMPI PUSH1 0x0 CALLDATALOAD PUSH1 0xE0 SHR DUP1 PUSH4 0xAD91B64 EQ PUSH2 0x51 JUMPI DUP1 PUSH4 0xF7CFBAA EQ PUSH2 0x81 JUMPI DUP1 PUSH4 0x6C7E373F EQ PUSH2 0x8B JUMPI DUP1 PUSH4 0xCAEC2A5A EQ PUSH2 0xBB JUMPI JUMPDEST PUSH1 0x0 DUP1 REVERT JUMPDEST PUSH2 0x6B PUSH1 0x4 DUP1 CALLDATASIZE SUB DUP2 ADD SWAP1 PUSH2 0x66 SWAP2 SWAP1 PUSH2 0x351 JUMP JUMPDEST PUSH2 0xD7 JUMP JUMPDEST PUSH1 0x40 MLOAD PUSH2 0x78 SWAP2 SWAP1 PUSH2 0x424 JUMP JUMPDEST PUSH1 0x40 MLOAD DUP1 SWAP2 SUB SWAP1 RETURN JUMPDEST PUSH2 0x89 PUSH2 0x19B JUMP JUMPDEST STOP JUMPDEST PUSH2 0xA5 PUSH1 0x4 DUP1 CALLDATASIZE SUB DUP2 ADD SWAP1 PUSH2 0xA0 SWAP2 SWAP1 PUSH2 0x351 JUMP JUMPDEST PUSH2 0x22E JUMP JUMPDEST PUSH1 0x40 MLOAD PUSH2 0xB2 SWAP2 SWAP1 PUSH2 0x409 JUMP JUMPDEST PUSH1 0x40 MLOAD DUP1 SWAP2 SUB SWAP1 RETURN JUMPDEST PUSH2 0xD5 PUSH1 0x4 DUP1 CALLDATASIZE SUB DUP2 ADD SWAP1 PUSH2 0xD0 SWAP2 SWAP1 PUSH2 0x3AB JUMP JUMPDEST PUSH2 0x26D JUMP JUMPDEST STOP JUMPDEST PUSH1 0x0 DUP1 DUP3 DUP2 SLOAD DUP2 LT PUSH2 0xEC JUMPI PUSH2 0xEB PUSH2 0x49F JUMP JUMPDEST JUMPDEST SWAP1 PUSH1 0x0 MSTORE PUSH1 0x20 PUSH1 0x0 KECCAK256 ADD PUSH1 0x0 SWAP1 SLOAD SWAP1 PUSH2 0x100 EXP SWAP1 DIV PUSH20 0xFFFFFFFFFFFFFFFFFFFFFFFFFFFFFFFFFFFFFFFF AND PUSH20 0xFFFFFFFFFFFFFFFFFFFFFFFFFFFFFFFFFFFFFFFF AND PUSH4 0x2E64CEC1 PUSH1 0x40 MLOAD DUP2 PUSH4 0xFFFFFFFF AND PUSH1 0xE0 SHL DUP2 MSTORE PUSH1 0x4 ADD PUSH1 0x20 PUSH1 0x40 MLOAD DUP1 DUP4 SUB DUP2 DUP7 DUP1 EXTCODESIZE ISZERO DUP1 ISZERO PUSH2 0x15C JUMPI PUSH1 0x0 DUP1 REVERT JUMPDEST POP GAS STATICCALL ISZERO DUP1 ISZERO PUSH2 0x170 JUMPI RETURNDATASIZE PUSH1 0x0 DUP1 RETURNDATACOPY RETURNDATASIZE PUSH1 0x0 REVERT JUMPDEST POP POP POP POP PUSH1 0x40 MLOAD RETURNDATASIZE PUSH1 0x1F NOT PUSH1 0x1F DUP3 ADD AND DUP3 ADD DUP1 PUSH1 0x40 MSTORE POP DUP2 ADD SWAP1 PUSH2 0x194 SWAP2 SWAP1 PUSH2 0x37E JUMP JUMPDEST SWAP1 POP SWAP2 SWAP1 POP JUMP JUMPDEST PUSH1 0x0 PUSH1 0x40 MLOAD PUSH2 0x1A9 SWAP1 PUSH2 0x31A JUMP JUMPDEST PUSH1 0x40 MLOAD DUP1 SWAP2 SUB SWAP1 PUSH1 0x0 CREATE DUP1 ISZERO DUP1 ISZERO PUSH2 0x1C5 JUMPI RETURNDATASIZE PUSH1 0x0 DUP1 RETURNDATACOPY RETURNDATASIZE PUSH1 0x0 REVERT JUMPDEST POP SWAP1 POP PUSH1 0x0 DUP2 SWAP1 DUP1 PUSH1 0x1 DUP2 SLOAD ADD DUP1 DUP3 SSTORE DUP1 SWAP2 POP POP PUSH1 0x1 SWAP1 SUB SWAP1 PUSH1 0x0 MSTORE PUSH1 0x20 PUSH1 0x0 KECCAK256 ADD PUSH1 0x0 SWAP1 SWAP2 SWAP1 SWAP2 SWAP1 SWAP2 PUSH2 0x100 EXP DUP2 SLOAD DUP2 PUSH20 0xFFFFFFFFFFFFFFFFFFFFFFFFFFFFFFFFFFFFFFFF MUL NOT AND SWAP1 DUP4 PUSH20 0xFFFFFFFFFFFFFFFFFFFFFFFFFFFFFFFFFFFFFFFF AND MUL OR SWAP1 SSTORE POP POP JUMP JUMPDEST PUSH1 0x0 DUP2 DUP2 SLOAD DUP2 LT PUSH2 0x23E JUMPI PUSH1 0x0 DUP1 REVERT JUMPDEST SWAP1 PUSH1 0x0 MSTORE PUSH1 0x20 PUSH1 0x0 KECCAK256 ADD PUSH1 0x0 SWAP2 POP SLOAD SWAP1 PUSH2 0x100 EXP SWAP1 DIV PUSH20 0xFFFFFFFFFFFFFFFFFFFFFFFFFFFFFFFFFFFFFFFF AND DUP2 JUMP JUMPDEST PUSH1 0x0 DUP3 DUP2 SLOAD DUP2 LT PUSH2 0x281 JUMPI PUSH2 0x280 PUSH2 0x49F JUMP JUMPDEST JUMPDEST SWAP1 PUSH1 0x0 MSTORE PUSH1 0x20 PUSH1 0x0 KECCAK256 ADD PUSH1 0x0 SWAP1 SLOAD SWAP1 PUSH2 0x100 EXP SWAP1 DIV PUSH20 0xFFFFFFFFFFFFFFFFFFFFFFFFFFFFFFFFFFFFFFFF AND PUSH20 0xFFFFFFFFFFFFFFFFFFFFFFFFFFFFFFFFFFFFFFFF AND PUSH4 0x6057361D DUP3 PUSH1 0x40 MLOAD DUP3 PUSH4 0xFFFFFFFF AND PUSH1 0xE0 SHL DUP2 MSTORE PUSH1 0x4 ADD PUSH2 0x2E4 SWAP2 SWAP1 PUSH2 0x424 JUMP JUMPDEST PUSH1 0x0 PUSH1 0x40 MLOAD DUP1 DUP4 SUB DUP2 PUSH1 0x0 DUP8 DUP1 EXTCODESIZE ISZERO DUP1 ISZERO PUSH2 0x2FE JUMPI PUSH1 0x0 DUP1 REVERT JUMPDEST POP GAS CALL ISZERO DUP1 ISZERO PUSH2 0x312 JUMPI RETURNDATASIZE PUSH1 0x0 DUP1 RETURNDATACOPY RETURNDATASIZE PUSH1 0x0 REVERT JUMPDEST POP POP POP POP POP POP JUMP JUMPDEST PUSH2 0xA13 DUP1 PUSH2 0x4EB DUP4 CODECOPY ADD SWAP1 JUMP JUMPDEST PUSH1 0x0 DUP2 CALLDATALOAD SWAP1 POP PUSH2 0x336 DUP2 PUSH2 0x4D3 JUMP JUMPDEST SWAP3 SWAP2 POP POP JUMP JUMPDEST PUSH1 0x0 DUP2 MLOAD SWAP1 POP PUSH2 0x34B DUP2 PUSH2 0x4D3 JUMP JUMPDEST SWAP3 SWAP2 POP POP JUMP JUMPDEST PUSH1 0x0 PUSH1 0x20 DUP3 DUP5 SUB SLT ISZERO PUSH2 0x367 JUMPI PUSH2 0x366 PUSH2 0x4CE JUMP JUMPDEST JUMPDEST PUSH1 0x0 PUSH2 0x375 DUP5 DUP3 DUP6 ADD PUSH2 0x327 JUMP JUMPDEST SWAP2 POP POP SWAP3 SWAP2 POP POP JUMP JUMPDEST PUSH1 0x0 PUSH1 0x20 DUP3 DUP5 SUB SLT ISZERO PUSH2 0x394 JUMPI PUSH2 0x393 PUSH2 0x4CE JUMP JUMPDEST JUMPDEST PUSH1 0x0 PUSH2 0x3A2 DUP5 DUP3 DUP6 ADD PUSH2 0x33C JUMP JUMPDEST SWAP2 POP POP SWAP3 SWAP2 POP POP JUMP JUMPDEST PUSH1 0x0 DUP1 PUSH1 0x40 DUP4 DUP6 SUB SLT ISZERO PUSH2 0x3C2 JUMPI PUSH2 0x3C1 PUSH2 0x4CE JUMP JUMPDEST JUMPDEST PUSH1 0x0 PUSH2 0x3D0 DUP6 DUP3 DUP7 ADD PUSH2 0x327 JUMP JUMPDEST SWAP3 POP POP PUSH1 0x20 PUSH2 0x3E1 DUP6 DUP3 DUP7 ADD PUSH2 0x327 JUMP JUMPDEST SWAP2 POP POP SWAP3 POP SWAP3 SWAP1 POP JUMP JUMPDEST PUSH2 0x3F4 DUP2 PUSH2 0x469 JUMP JUMPDEST DUP3 MSTORE POP POP JUMP JUMPDEST PUSH2 0x403 DUP2 PUSH2 0x45F JUMP JUMPDEST DUP3 MSTORE POP POP JUMP JUMPDEST PUSH1 0x0 PUSH1 0x20 DUP3 ADD SWAP1 POP PUSH2 0x41E PUSH1 0x0 DUP4 ADD DUP5 PUSH2 0x3EB JUMP JUMPDEST SWAP3 SWAP2 POP POP JUMP JUMPDEST PUSH1 0x0 PUSH1 0x20 DUP3 ADD SWAP1 POP PUSH2 0x439 PUSH1 0x0 DUP4 ADD DUP5 PUSH2 0x3FA JUMP JUMPDEST SWAP3 SWAP2 POP POP JUMP JUMPDEST PUSH1 0x0 PUSH20 0xFFFFFFFFFFFFFFFFFFFFFFFFFFFFFFFFFFFFFFFF DUP3 AND SWAP1 POP SWAP2 SWAP1 POP JUMP JUMPDEST PUSH1 0x0 DUP2 SWAP1 POP SWAP2 SWAP1 POP JUMP JUMPDEST PUSH1 0x0 PUSH2 0x474 DUP3 PUSH2 0x47B JUMP JUMPDEST SWAP1 POP SWAP2 SWAP1 POP JUMP JUMPDEST PUSH1 0x0 PUSH2 0x486 DUP3 PUSH2 0x48D JUMP JUMPDEST SWAP1 POP SWAP2 SWAP1 POP JUMP JUMPDEST PUSH1 0x0 PUSH2 0x498 DUP3 PUSH2 0x43F JUMP JUMPDEST SWAP1 POP SWAP2 SWAP1 POP JUMP JUMPDEST PUSH32 0x4E487B7100000000000000000000000000000000000000000000000000000000 PUSH1 0x0 MSTORE PUSH1 0x32 PUSH1 0x4 MSTORE PUSH1 0x24 PUSH1 0x0 REVERT JUMPDEST PUSH1 0x0 DUP1 REVERT JUMPDEST PUSH2 0x4DC DUP2 PUSH2 0x45F JUMP JUMPDEST DUP2 EQ PUSH2 0x4E7 JUMPI PUSH1 0x0 DUP1 REVERT JUMPDEST POP JUMP INVALID PUSH1 0x80 PUSH1 0x40 MSTORE PUSH1 0x40 MLOAD DUP1 PUSH1 0x40 ADD PUSH1 0x40 MSTORE DUP1 PUSH1 0x2 DUP2 MSTORE PUSH1 0x20 ADD PUSH1 0x40 MLOAD DUP1 PUSH1 0x40 ADD PUSH1 0x40 MSTORE DUP1 PUSH1 0x5 DUP2 MSTORE PUSH1 0x20 ADD PUSH32 0x616B617368000000000000000000000000000000000000000000000000000000 DUP2 MSTORE POP DUP2 MSTORE POP PUSH1 0x2 PUSH1 0x0 DUP3 ADD MLOAD DUP2 PUSH1 0x0 ADD SSTORE PUSH1 0x20 DUP3 ADD MLOAD DUP2 PUSH1 0x1 ADD SWAP1 DUP1 MLOAD SWAP1 PUSH1 0x20 ADD SWAP1 PUSH2 0x77 SWAP3 SWAP2 SWAP1 PUSH2 0x8C JUMP JUMPDEST POP POP POP CALLVALUE DUP1 ISZERO PUSH2 0x86 JUMPI PUSH1 0x0 DUP1 REVERT JUMPDEST POP PUSH2 0x190 JUMP JUMPDEST DUP3 DUP1 SLOAD PUSH2 0x98 SWAP1 PUSH2 0x12F JUMP JUMPDEST SWAP1 PUSH1 0x0 MSTORE PUSH1 0x20 PUSH1 0x0 KECCAK256 SWAP1 PUSH1 0x1F ADD PUSH1 0x20 SWAP1 DIV DUP2 ADD SWAP3 DUP3 PUSH2 0xBA JUMPI PUSH1 0x0 DUP6 SSTORE PUSH2 0x101 JUMP JUMPDEST DUP3 PUSH1 0x1F LT PUSH2 0xD3 JUMPI DUP1 MLOAD PUSH1 0xFF NOT AND DUP4 DUP1 ADD OR DUP6 SSTORE PUSH2 0x101 JUMP JUMPDEST DUP3 DUP1 ADD PUSH1 0x1 ADD DUP6 SSTORE DUP3 ISZERO PUSH2 0x101 JUMPI SWAP2 DUP3 ADD JUMPDEST DUP3 DUP2 GT ISZERO PUSH2 0x100 JUMPI DUP3 MLOAD DUP3 SSTORE SWAP2 PUSH1 0x20 ADD SWAP2 SWAP1 PUSH1 0x1 ADD SWAP1 PUSH2 0xE5 JUMP JUMPDEST JUMPDEST POP SWAP1 POP PUSH2 0x10E SWAP2 SWAP1 PUSH2 0x112 JUMP JUMPDEST POP SWAP1 JUMP JUMPDEST JUMPDEST DUP1 DUP3 GT ISZERO PUSH2 0x12B JUMPI PUSH1 0x0 DUP2 PUSH1 0x0 SWAP1 SSTORE POP PUSH1 0x1 ADD PUSH2 0x113 JUMP JUMPDEST POP SWAP1 JUMP JUMPDEST PUSH1 0x0 PUSH1 0x2 DUP3 DIV SWAP1 POP PUSH1 0x1 DUP3 AND DUP1 PUSH2 0x147 JUMPI PUSH1 0x7F DUP3 AND SWAP2 POP JUMPDEST PUSH1 0x20 DUP3 LT DUP2 EQ ISZERO PUSH2 0x15B JUMPI PUSH2 0x15A PUSH2 0x161 JUMP JUMPDEST JUMPDEST POP SWAP2 SWAP1 POP JUMP JUMPDEST PUSH32 0x4E487B7100000000000000000000000000000000000000000000000000000000 PUSH1 0x0 MSTORE PUSH1 0x22 PUSH1 0x4 MSTORE PUSH1 0x24 PUSH1 0x0 REVERT JUMPDEST PUSH2 0x874 DUP1 PUSH2 0x19F PUSH1 0x0 CODECOPY PUSH1 0x0 RETURN INVALID PUSH1 0x80 PUSH1 0x40 MSTORE CALLVALUE DUP1 ISZERO PUSH2 0x10 JUMPI PUSH1 0x0 DUP1 REVERT JUMPDEST POP PUSH1 0x4 CALLDATASIZE LT PUSH2 0x7D JUMPI PUSH1 0x0 CALLDATALOAD PUSH1 0xE0 SHR DUP1 PUSH4 0x7FFFB7BD GT PUSH2 0x5B JUMPI DUP1 PUSH4 0x7FFFB7BD EQ PUSH2 0xDB JUMPI DUP1 PUSH4 0x9E7A13AD EQ PUSH2 0xF9 JUMPI DUP1 PUSH4 0xE1B3202A EQ PUSH2 0x12A JUMPI DUP1 PUSH4 0xE3CBB98E EQ PUSH2 0x146 JUMPI PUSH2 0x7D JUMP JUMPDEST DUP1 PUSH4 0x2E64CEC1 EQ PUSH2 0x82 JUMPI DUP1 PUSH4 0x6057361D EQ PUSH2 0xA0 JUMPI DUP1 PUSH4 0x77EC2B55 EQ PUSH2 0xBC JUMPI JUMPDEST PUSH1 0x0 DUP1 REVERT JUMPDEST PUSH2 0x8A PUSH2 0x176 JUMP JUMPDEST PUSH1 0x40 MLOAD PUSH2 0x97 SWAP2 SWAP1 PUSH2 0x62D JUMP JUMPDEST PUSH1 0x40 MLOAD DUP1 SWAP2 SUB SWAP1 RETURN JUMPDEST PUSH2 0xBA PUSH1 0x4 DUP1 CALLDATASIZE SUB DUP2 ADD SWAP1 PUSH2 0xB5 SWAP2 SWAP1 PUSH2 0x570 JUMP JUMPDEST PUSH2 0x17F JUMP JUMPDEST STOP JUMPDEST PUSH2 0xC4 PUSH2 0x189 JUMP JUMPDEST PUSH1 0x40 MLOAD PUSH2 0xD2 SWAP3 SWAP2 SWAP1 PUSH2 0x648 JUMP JUMPDEST PUSH1 0x40 MLOAD DUP1 SWAP2 SUB SWAP1 RETURN JUMPDEST PUSH2 0xE3 PUSH2 0x223 JUMP JUMPDEST PUSH1 0x40 MLOAD PUSH2 0xF0 SWAP2 SWAP1 PUSH2 0x62D JUMP JUMPDEST PUSH1 0x40 MLOAD DUP1 SWAP2 SUB SWAP1 RETURN JUMPDEST PUSH2 0x113 PUSH1 0x4 DUP1 CALLDATASIZE SUB DUP2 ADD SWAP1 PUSH2 0x10E SWAP2 SWAP1 PUSH2 0x570 JUMP JUMPDEST PUSH2 0x229 JUMP JUMPDEST PUSH1 0x40 MLOAD PUSH2 0x121 SWAP3 SWAP2 SWAP1 PUSH2 0x648 JUMP JUMPDEST PUSH1 0x40 MLOAD DUP1 SWAP2 SUB SWAP1 RETURN JUMPDEST PUSH2 0x144 PUSH1 0x4 DUP1 CALLDATASIZE SUB DUP2 ADD SWAP1 PUSH2 0x13F SWAP2 SWAP1 PUSH2 0x514 JUMP JUMPDEST PUSH2 0x2E5 JUMP JUMPDEST STOP JUMPDEST PUSH2 0x160 PUSH1 0x4 DUP1 CALLDATASIZE SUB DUP2 ADD SWAP1 PUSH2 0x15B SWAP2 SWAP1 PUSH2 0x4CB JUMP JUMPDEST PUSH2 0x375 JUMP JUMPDEST PUSH1 0x40 MLOAD PUSH2 0x16D SWAP2 SWAP1 PUSH2 0x62D JUMP JUMPDEST PUSH1 0x40 MLOAD DUP1 SWAP2 SUB SWAP1 RETURN JUMPDEST PUSH1 0x0 DUP1 SLOAD SWAP1 POP SWAP1 JUMP JUMPDEST DUP1 PUSH1 0x0 DUP2 SWAP1 SSTORE POP POP JUMP JUMPDEST PUSH1 0x2 DUP1 PUSH1 0x0 ADD SLOAD SWAP1 DUP1 PUSH1 0x1 ADD DUP1 SLOAD PUSH2 0x1A0 SWAP1 PUSH2 0x741 JUMP JUMPDEST DUP1 PUSH1 0x1F ADD PUSH1 0x20 DUP1 SWAP2 DIV MUL PUSH1 0x20 ADD PUSH1 0x40 MLOAD SWAP1 DUP2 ADD PUSH1 0x40 MSTORE DUP1 SWAP3 SWAP2 SWAP1 DUP2 DUP2 MSTORE PUSH1 0x20 ADD DUP3 DUP1 SLOAD PUSH2 0x1CC SWAP1 PUSH2 0x741 JUMP JUMPDEST DUP1 ISZERO PUSH2 0x219 JUMPI DUP1 PUSH1 0x1F LT PUSH2 0x1EE JUMPI PUSH2 0x100 DUP1 DUP4 SLOAD DIV MUL DUP4 MSTORE SWAP2 PUSH1 0x20 ADD SWAP2 PUSH2 0x219 JUMP JUMPDEST DUP3 ADD SWAP2 SWAP1 PUSH1 0x0 MSTORE PUSH1 0x20 PUSH1 0x0 KECCAK256 SWAP1 JUMPDEST DUP2 SLOAD DUP2 MSTORE SWAP1 PUSH1 0x1 ADD SWAP1 PUSH1 0x20 ADD DUP1 DUP4 GT PUSH2 0x1FC JUMPI DUP3 SWAP1 SUB PUSH1 0x1F AND DUP3 ADD SWAP2 JUMPDEST POP POP POP POP POP SWAP1 POP DUP3 JUMP JUMPDEST PUSH1 0x0 SLOAD DUP2 JUMP JUMPDEST PUSH1 0x4 DUP2 DUP2 SLOAD DUP2 LT PUSH2 0x239 JUMPI PUSH1 0x0 DUP1 REVERT JUMPDEST SWAP1 PUSH1 0x0 MSTORE PUSH1 0x20 PUSH1 0x0 KECCAK256 SWAP1 PUSH1 0x2 MUL ADD PUSH1 0x0 SWAP2 POP SWAP1 POP DUP1 PUSH1 0x0 ADD SLOAD SWAP1 DUP1 PUSH1 0x1 ADD DUP1 SLOAD PUSH2 0x262 SWAP1 PUSH2 0x741 JUMP JUMPDEST DUP1 PUSH1 0x1F ADD PUSH1 0x20 DUP1 SWAP2 DIV MUL PUSH1 0x20 ADD PUSH1 0x40 MLOAD SWAP1 DUP2 ADD PUSH1 0x40 MSTORE DUP1 SWAP3 SWAP2 SWAP1 DUP2 DUP2 MSTORE PUSH1 0x20 ADD DUP3 DUP1 SLOAD PUSH2 0x28E SWAP1 PUSH2 0x741 JUMP JUMPDEST DUP1 ISZERO PUSH2 0x2DB JUMPI DUP1 PUSH1 0x1F LT PUSH2 0x2B0 JUMPI PUSH2 0x100 DUP1 DUP4 SLOAD DIV MUL DUP4 MSTORE SWAP2 PUSH1 0x20 ADD SWAP2 PUSH2 0x2DB JUMP JUMPDEST DUP3 ADD SWAP2 SWAP1 PUSH1 0x0 MSTORE PUSH1 0x20 PUSH1 0x0 KECCAK256 SWAP1 JUMPDEST DUP2 SLOAD DUP2 MSTORE SWAP1 PUSH1 0x1 ADD SWAP1 PUSH1 0x20 ADD DUP1 DUP4 GT PUSH2 0x2BE JUMPI DUP3 SWAP1 SUB PUSH1 0x1F AND DUP3 ADD SWAP2 JUMPDEST POP POP POP POP POP SWAP1 POP DUP3 JUMP JUMPDEST PUSH1 0x4 PUSH1 0x40 MLOAD DUP1 PUSH1 0x40 ADD PUSH1 0x40 MSTORE DUP1 DUP4 DUP2 MSTORE PUSH1 0x20 ADD DUP5 DUP2 MSTORE POP SWAP1 DUP1 PUSH1 0x1 DUP2 SLOAD ADD DUP1 DUP3 SSTORE DUP1 SWAP2 POP POP PUSH1 0x1 SWAP1 SUB SWAP1 PUSH1 0x0 MSTORE PUSH1 0x20 PUSH1 0x0 KECCAK256 SWAP1 PUSH1 0x2 MUL ADD PUSH1 0x0 SWAP1 SWAP2 SWAP1 SWAP2 SWAP1 SWAP2 POP PUSH1 0x0 DUP3 ADD MLOAD DUP2 PUSH1 0x0 ADD SSTORE PUSH1 0x20 DUP3 ADD MLOAD DUP2 PUSH1 0x1 ADD SWAP1 DUP1 MLOAD SWAP1 PUSH1 0x20 ADD SWAP1 PUSH2 0x34B SWAP3 SWAP2 SWAP1 PUSH2 0x3A3 JUMP JUMPDEST POP POP POP DUP1 PUSH1 0x1 DUP4 PUSH1 0x40 MLOAD PUSH2 0x35F SWAP2 SWAP1 PUSH2 0x616 JUMP JUMPDEST SWAP1 DUP2 MSTORE PUSH1 0x20 ADD PUSH1 0x40 MLOAD DUP1 SWAP2 SUB SWAP1 KECCAK256 DUP2 SWAP1 SSTORE POP POP POP JUMP JUMPDEST PUSH1 0x1 DUP2 DUP1 MLOAD PUSH1 0x20 DUP2 ADD DUP3 ADD DUP1 MLOAD DUP5 DUP3 MSTORE PUSH1 0x20 DUP4 ADD PUSH1 0x20 DUP6 ADD KECCAK256 DUP2 DUP4 MSTORE DUP1 SWAP6 POP POP POP POP POP POP PUSH1 0x0 SWAP2 POP SWAP1 POP SLOAD DUP2 JUMP JUMPDEST DUP3 DUP1 SLOAD PUSH2 0x3AF SWAP1 PUSH2 0x741 JUMP JUMPDEST SWAP1 PUSH1 0x0 MSTORE PUSH1 0x20 PUSH1 0x0 KECCAK256 SWAP1 PUSH1 0x1F ADD PUSH1 0x20 SWAP1 DIV DUP2 ADD SWAP3 DUP3 PUSH2 0x3D1 JUMPI PUSH1 0x0 DUP6 SSTORE PUSH2 0x418 JUMP JUMPDEST DUP3 PUSH1 0x1F LT PUSH2 0x3EA JUMPI DUP1 MLOAD PUSH1 0xFF NOT AND DUP4 DUP1 ADD OR DUP6 SSTORE PUSH2 0x418 JUMP JUMPDEST DUP3 DUP1 ADD PUSH1 0x1 ADD DUP6 SSTORE DUP3 ISZERO PUSH2 0x418 JUMPI SWAP2 DUP3 ADD JUMPDEST DUP3 DUP2 GT ISZERO PUSH2 0x417 JUMPI DUP3 MLOAD DUP3 SSTORE SWAP2 PUSH1 0x20 ADD SWAP2 SWAP1 PUSH1 0x1 ADD SWAP1 PUSH2 0x3FC JUMP JUMPDEST JUMPDEST POP SWAP1 POP PUSH2 0x425 SWAP2 SWAP1 PUSH2 0x429 JUMP JUMPDEST POP SWAP1 JUMP JUMPDEST JUMPDEST DUP1 DUP3 GT ISZERO PUSH2 0x442 JUMPI PUSH1 0x0 DUP2 PUSH1 0x0 SWAP1 SSTORE POP PUSH1 0x1 ADD PUSH2 0x42A JUMP JUMPDEST POP SWAP1 JUMP JUMPDEST PUSH1 0x0 PUSH2 0x459 PUSH2 0x454 DUP5 PUSH2 0x69D JUMP JUMPDEST PUSH2 0x678 JUMP JUMPDEST SWAP1 POP DUP3 DUP2 MSTORE PUSH1 0x20 DUP2 ADD DUP5 DUP5 DUP5 ADD GT ISZERO PUSH2 0x475 JUMPI PUSH2 0x474 PUSH2 0x807 JUMP JUMPDEST JUMPDEST PUSH2 0x480 DUP5 DUP3 DUP6 PUSH2 0x6FF JUMP JUMPDEST POP SWAP4 SWAP3 POP POP POP JUMP JUMPDEST PUSH1 0x0 DUP3 PUSH1 0x1F DUP4 ADD SLT PUSH2 0x49D JUMPI PUSH2 0x49C PUSH2 0x802 JUMP JUMPDEST JUMPDEST DUP2 CALLDATALOAD PUSH2 0x4AD DUP5 DUP3 PUSH1 0x20 DUP7 ADD PUSH2 0x446 JUMP JUMPDEST SWAP2 POP POP SWAP3 SWAP2 POP POP JUMP JUMPDEST PUSH1 0x0 DUP2 CALLDATALOAD SWAP1 POP PUSH2 0x4C5 DUP2 PUSH2 0x827 JUMP JUMPDEST SWAP3 SWAP2 POP POP JUMP JUMPDEST PUSH1 0x0 PUSH1 0x20 DUP3 DUP5 SUB SLT ISZERO PUSH2 0x4E1 JUMPI PUSH2 0x4E0 PUSH2 0x811 JUMP JUMPDEST JUMPDEST PUSH1 0x0 DUP3 ADD CALLDATALOAD PUSH8 0xFFFFFFFFFFFFFFFF DUP2 GT ISZERO PUSH2 0x4FF JUMPI PUSH2 0x4FE PUSH2 0x80C JUMP JUMPDEST JUMPDEST PUSH2 0x50B DUP5 DUP3 DUP6 ADD PUSH2 0x488 JUMP JUMPDEST SWAP2 POP POP SWAP3 SWAP2 POP POP JUMP JUMPDEST PUSH1 0x0 DUP1 PUSH1 0x40 DUP4 DUP6 SUB SLT ISZERO PUSH2 0x52B JUMPI PUSH2 0x52A PUSH2 0x811 JUMP JUMPDEST JUMPDEST PUSH1 0x0 DUP4 ADD CALLDATALOAD PUSH8 0xFFFFFFFFFFFFFFFF DUP2 GT ISZERO PUSH2 0x549 JUMPI PUSH2 0x548 PUSH2 0x80C JUMP JUMPDEST JUMPDEST PUSH2 0x555 DUP6 DUP3 DUP7 ADD PUSH2 0x488 JUMP JUMPDEST SWAP3 POP POP PUSH1 0x20 PUSH2 0x566 DUP6 DUP3 DUP7 ADD PUSH2 0x4B6 JUMP JUMPDEST SWAP2 POP POP SWAP3 POP SWAP3 SWAP1 POP JUMP JUMPDEST PUSH1 0x0 PUSH1 0x20 DUP3 DUP5 SUB SLT ISZERO PUSH2 0x586 JUMPI PUSH2 0x585 PUSH2 0x811 JUMP JUMPDEST JUMPDEST PUSH1 0x0 PUSH2 0x594 DUP5 DUP3 DUP6 ADD PUSH2 0x4B6 JUMP JUMPDEST SWAP2 POP POP SWAP3 SWAP2 POP POP JUMP JUMPDEST PUSH1 0x0 PUSH2 0x5A8 DUP3 PUSH2 0x6CE JUMP JUMPDEST PUSH2 0x5B2 DUP2 DUP6 PUSH2 0x6D9 JUMP JUMPDEST SWAP4 POP PUSH2 0x5C2 DUP2 DUP6 PUSH1 0x20 DUP7 ADD PUSH2 0x70E JUMP JUMPDEST PUSH2 0x5CB DUP2 PUSH2 0x816 JUMP JUMPDEST DUP5 ADD SWAP2 POP POP SWAP3 SWAP2 POP POP JUMP JUMPDEST PUSH1 0x0 PUSH2 0x5E1 DUP3 PUSH2 0x6CE JUMP JUMPDEST PUSH2 0x5EB DUP2 DUP6 PUSH2 0x6EA JUMP JUMPDEST SWAP4 POP PUSH2 0x5FB DUP2 DUP6 PUSH1 0x20 DUP7 ADD PUSH2 0x70E JUMP JUMPDEST DUP1 DUP5 ADD SWAP2 POP POP SWAP3 SWAP2 POP POP JUMP JUMPDEST PUSH2 0x610 DUP2 PUSH2 0x6F5 JUMP JUMPDEST DUP3 MSTORE POP POP JUMP JUMPDEST PUSH1 0x0 PUSH2 0x622 DUP3 DUP5 PUSH2 0x5D6 JUMP JUMPDEST SWAP2 POP DUP2 SWAP1 POP SWAP3 SWAP2 POP POP JUMP JUMPDEST PUSH1 0x0 PUSH1 0x20 DUP3 ADD SWAP1 POP PUSH2 0x642 PUSH1 0x0 DUP4 ADD DUP5 PUSH2 0x607 JUMP JUMPDEST SWAP3 SWAP2 POP POP JUMP JUMPDEST PUSH1 0x0 PUSH1 0x40 DUP3 ADD SWAP1 POP PUSH2 0x65D PUSH1 0x0 DUP4 ADD DUP6 PUSH2 0x607 JUMP JUMPDEST DUP2 DUP2 SUB PUSH1 0x20 DUP4 ADD MSTORE PUSH2 0x66F DUP2 DUP5 PUSH2 0x59D JUMP JUMPDEST SWAP1 POP SWAP4 SWAP3 POP POP POP JUMP JUMPDEST PUSH1 0x0 PUSH2 0x682 PUSH2 0x693 JUMP JUMPDEST SWAP1 POP PUSH2 0x68E DUP3 DUP3 PUSH2 0x773 JUMP JUMPDEST SWAP2 SWAP1 POP JUMP JUMPDEST PUSH1 0x0 PUSH1 0x40 MLOAD SWAP1 POP SWAP1 JUMP JUMPDEST PUSH1 0x0 PUSH8 0xFFFFFFFFFFFFFFFF DUP3 GT ISZERO PUSH2 0x6B8 JUMPI PUSH2 0x6B7 PUSH2 0x7D3 JUMP JUMPDEST JUMPDEST PUSH2 0x6C1 DUP3 PUSH2 0x816 JUMP JUMPDEST SWAP1 POP PUSH1 0x20 DUP2 ADD SWAP1 POP SWAP2 SWAP1 POP JUMP JUMPDEST PUSH1 0x0 DUP2 MLOAD SWAP1 POP SWAP2 SWAP1 POP JUMP JUMPDEST PUSH1 0x0 DUP3 DUP3 MSTORE PUSH1 0x20 DUP3 ADD SWAP1 POP SWAP3 SWAP2 POP POP JUMP JUMPDEST PUSH1 0x0 DUP2 SWAP1 POP SWAP3 SWAP2 POP POP JUMP JUMPDEST PUSH1 0x0 DUP2 SWAP1 POP SWAP2 SWAP1 POP JUMP JUMPDEST DUP3 DUP2 DUP4 CALLDATACOPY PUSH1 0x0 DUP4 DUP4 ADD MSTORE POP POP POP JUMP JUMPDEST PUSH1 0x0 JUMPDEST DUP4 DUP2 LT ISZERO PUSH2 0x72C JUMPI DUP1 DUP3 ADD MLOAD DUP2 DUP5 ADD MSTORE PUSH1 0x20 DUP2 ADD SWAP1 POP PUSH2 0x711 JUMP JUMPDEST DUP4 DUP2 GT ISZERO PUSH2 0x73B JUMPI PUSH1 0x0 DUP5 DUP5 ADD MSTORE JUMPDEST POP POP POP POP JUMP JUMPDEST PUSH1 0x0 PUSH1 0x2 DUP3 DIV SWAP1 POP PUSH1 0x1 DUP3 AND DUP1 PUSH2 0x759 JUMPI PUSH1 0x7F DUP3 AND SWAP2 POP JUMPDEST PUSH1 0x20 DUP3 LT DUP2 EQ ISZERO PUSH2 0x76D JUMPI PUSH2 0x76C PUSH2 0x7A4 JUMP JUMPDEST JUMPDEST POP SWAP2 SWAP1 POP JUMP JUMPDEST PUSH2 0x77C DUP3 PUSH2 0x816 JUMP JUMPDEST DUP2 ADD DUP2 DUP2 LT PUSH8 0xFFFFFFFFFFFFFFFF DUP3 GT OR ISZERO PUSH2 0x79B JUMPI PUSH2 0x79A PUSH2 0x7D3 JUMP JUMPDEST JUMPDEST DUP1 PUSH1 0x40 MSTORE POP POP POP JUMP JUMPDEST PUSH32 0x4E487B7100000000000000000000000000000000000000000000000000000000 PUSH1 0x0 MSTORE PUSH1 0x22 PUSH1 0x4 MSTORE PUSH1 0x24 PUSH1 0x0 REVERT JUMPDEST PUSH32 0x4E487B7100000000000000000000000000000000000000000000000000000000 PUSH1 0x0 MSTORE PUSH1 0x41 PUSH1 0x4 MSTORE PUSH1 0x24 PUSH1 0x0 REVERT JUMPDEST PUSH1 0x0 DUP1 REVERT JUMPDEST PUSH1 0x0 DUP1 REVERT JUMPDEST PUSH1 0x0 DUP1 REVERT JUMPDEST PUSH1 0x0 DUP1 REVERT JUMPDEST PUSH1 0x0 PUSH1 0x1F NOT PUSH1 0x1F DUP4 ADD AND SWAP1 POP SWAP2 SWAP1 POP JUMP JUMPDEST PUSH2 0x830 DUP2 PUSH2 0x6F5 JUMP JUMPDEST DUP2 EQ PUSH2 0x83B JUMPI PUSH1 0x0 DUP1 REVERT JUMPDEST POP JUMP INVALID LOG2 PUSH5 0x6970667358 0x22 SLT KECCAK256 PUSH13 0x304EC2C32015888E24D865A4C0 SWAP8 0xE CALLER PUSH1 0xE9 ORIGIN 0xC8 0xB2 0xB4 0xC7 SIGNEXTEND PUSH22 0x2E9E0B96A99264736F6C63430008070033A264697066 PUSH20 0x58221220A57AA9D4E991C63FBB12DB812A1022A5 0xE4 PUSH16 0xB6B94616FC530C52F812E4C600D26473 PUSH16 0x6C634300080700330000000000000000 "
				},
				"gasEstimates": {
					"creation": {
						"codeDepositCost": "778200",
						"executionCost": "812",
						"totalCost": "779012"
					},
					"external": {
						"createSimpleContract()": "infinite",
						"newclassArray(uint256)": "5064",
						"sfget(uint256)": "infinite",
						"sfstore(uint256,uint256)": "infinite"
					}
				},
				"methodIdentifiers": {
					"createSimpleContract()": "0f7cfbaa",
					"newclassArray(uint256)": "6c7e373f",
					"sfget(uint256)": "0ad91b64",
					"sfstore(uint256,uint256)": "caec2a5a"
				}
			},
			"storageLayout": {
				"storage": [
					{
						"astId": 6,
						"contract": "contracts/StorageFactory.sol:StorageFactory",
						"label": "newclassArray",
						"offset": 0,
						"slot": "0",
						"type": "t_array(t_contract(SimpleContract)120)dyn_storage"
					}
				],
				"types": {
					"t_array(t_contract(SimpleContract)120)dyn_storage": {
						"base": "t_contract(SimpleContract)120",
						"encoding": "dynamic_array",
						"label": "contract SimpleContract[]",
						"numberOfBytes": "32"
					},
					"t_contract(SimpleContract)120": {
						"encoding": "inplace",
						"label": "contract SimpleContract",
						"numberOfBytes": "20"
					}
				}
			},
			"userdoc": {
				"kind": "user",
				"methods": {},
				"version": 1
			}
		}
	}
}